{
  "contractName": "CoinFlip",
  "abi": [
    {
      "constant": true,
      "inputs": [
        {
          "name": "",
          "type": "bytes32"
        }
      ],
      "name": "toMaxBetAmount",
      "outputs": [
        {
          "name": "",
          "type": "uint256"
        }
      ],
      "payable": false,
      "stateMutability": "view",
      "type": "function"
    },
    {
      "constant": true,
      "inputs": [],
      "name": "gamblingManager",
      "outputs": [
        {
          "name": "",
          "type": "address"
        }
      ],
      "payable": false,
      "stateMutability": "view",
      "type": "function"
    },
    {
      "constant": true,
      "inputs": [],
      "name": "owner",
      "outputs": [
        {
          "name": "",
          "type": "address"
        }
      ],
      "payable": false,
      "stateMutability": "view",
      "type": "function"
    },
    {
      "constant": true,
      "inputs": [
        {
          "name": "",
          "type": "uint256"
        }
      ],
      "name": "possibilitiesToMultiplier",
      "outputs": [
        {
          "name": "",
          "type": "uint256"
        }
      ],
      "payable": false,
      "stateMutability": "view",
      "type": "function"
    },
    {
      "constant": false,
      "inputs": [
        {
          "name": "_to",
          "type": "address"
        }
      ],
      "name": "transferTo",
      "outputs": [
        {
          "name": "",
          "type": "bool"
        }
      ],
      "payable": false,
      "stateMutability": "nonpayable",
      "type": "function"
    },
    {
      "constant": true,
      "inputs": [],
      "name": "MULTIPLIER_BASE",
      "outputs": [
        {
          "name": "",
          "type": "uint256"
        }
      ],
      "payable": false,
      "stateMutability": "view",
      "type": "function"
    },
    {
      "inputs": [
        {
          "name": "_gamblingManager",
          "type": "address"
        }
      ],
      "payable": false,
      "stateMutability": "nonpayable",
      "type": "constructor"
    },
    {
      "anonymous": false,
      "inputs": [
        {
          "indexed": false,
          "name": "_id",
          "type": "bytes32"
        },
        {
          "indexed": false,
          "name": "_maxBetAmount",
          "type": "uint256"
        }
      ],
      "name": "SetMaxBetAmount",
      "type": "event"
    },
    {
      "anonymous": false,
      "inputs": [
        {
          "indexed": false,
          "name": "_possibility",
          "type": "uint256"
        },
        {
          "indexed": false,
          "name": "_multiplier",
          "type": "uint256"
        }
      ],
      "name": "SetMultiplier",
      "type": "event"
    },
    {
      "anonymous": false,
      "inputs": [],
      "name": "Deposit",
      "type": "event"
    },
    {
      "anonymous": false,
      "inputs": [
        {
          "indexed": false,
          "name": "_possibility",
          "type": "uint256"
        },
        {
          "indexed": false,
          "name": "_multiplier",
          "type": "uint256"
        },
        {
          "indexed": false,
          "name": "_luckyNumber",
          "type": "uint256"
        },
        {
          "indexed": false,
          "name": "_betNumber",
          "type": "uint256"
        }
      ],
      "name": "Win",
      "type": "event"
    },
    {
      "anonymous": false,
      "inputs": [
        {
          "indexed": false,
          "name": "_possibility",
          "type": "uint256"
        },
        {
          "indexed": false,
          "name": "_multiplier",
          "type": "uint256"
        },
        {
          "indexed": false,
          "name": "_luckyNumber",
          "type": "uint256"
        },
        {
          "indexed": false,
          "name": "_betNumber",
          "type": "uint256"
        }
      ],
      "name": "Lose",
      "type": "event"
    },
    {
      "constant": false,
      "inputs": [
        {
          "name": "_id",
          "type": "bytes32"
        },
        {
          "name": "_maxBetAmount",
          "type": "uint256"
        }
      ],
      "name": "setMaxBetAmount",
      "outputs": [],
      "payable": false,
      "stateMutability": "nonpayable",
      "type": "function"
    },
    {
      "constant": false,
      "inputs": [
        {
          "name": "_possibility",
          "type": "uint256"
        },
        {
          "name": "_multiplier",
          "type": "uint256"
        }
      ],
      "name": "setMultiplier",
      "outputs": [],
      "payable": false,
      "stateMutability": "nonpayable",
      "type": "function"
    },
    {
      "constant": false,
      "inputs": [
        {
          "name": "",
          "type": "address"
        },
        {
          "name": "",
          "type": "bytes32"
        },
        {
          "name": "",
          "type": "bytes"
        }
      ],
      "name": "create",
      "outputs": [
        {
          "name": "",
          "type": "bool"
        }
      ],
      "payable": false,
      "stateMutability": "nonpayable",
      "type": "function"
    },
    {
      "constant": false,
      "inputs": [
        {
          "name": "_sender",
          "type": "address"
        },
        {
          "name": "_id",
          "type": "bytes32"
        },
        {
          "name": "_player",
          "type": "address"
        },
        {
          "name": "_data",
          "type": "bytes"
        }
      ],
      "name": "play",
      "outputs": [
        {
          "name": "needAmount",
          "type": "uint256"
        }
      ],
      "payable": false,
      "stateMutability": "nonpayable",
      "type": "function"
    },
    {
      "constant": false,
      "inputs": [
        {
          "name": "_sender",
          "type": "address"
        },
        {
          "name": "",
          "type": "bytes32"
        },
        {
          "name": "",
          "type": "address"
        },
        {
          "name": "_data",
          "type": "bytes"
        }
      ],
      "name": "collect",
      "outputs": [
        {
          "name": "",
          "type": "uint256"
        }
      ],
      "payable": false,
      "stateMutability": "nonpayable",
      "type": "function"
    },
    {
      "constant": false,
      "inputs": [
        {
          "name": "_sender",
          "type": "address"
        },
        {
          "name": "",
          "type": "bytes32"
        },
        {
          "name": "",
          "type": "bytes"
        }
      ],
      "name": "cancel",
      "outputs": [
        {
          "name": "",
          "type": "bool"
        }
      ],
      "payable": false,
      "stateMutability": "nonpayable",
      "type": "function"
    },
    {
      "constant": true,
      "inputs": [
        {
          "name": "",
          "type": "address"
        },
        {
          "name": "",
          "type": "bytes32"
        },
        {
          "name": "",
          "type": "bytes"
        }
      ],
      "name": "validateCreate",
      "outputs": [
        {
          "name": "",
          "type": "bool"
        }
      ],
      "payable": false,
      "stateMutability": "view",
      "type": "function"
    },
    {
      "constant": true,
      "inputs": [
        {
          "name": "_sender",
          "type": "address"
        },
        {
          "name": "_id",
          "type": "bytes32"
        },
        {
          "name": "_player",
          "type": "address"
        },
        {
          "name": "_data",
          "type": "bytes"
        }
      ],
      "name": "validatePlay",
      "outputs": [
        {
          "name": "",
          "type": "bool"
        }
      ],
      "payable": false,
      "stateMutability": "view",
      "type": "function"
    },
    {
      "constant": true,
      "inputs": [
        {
          "name": "",
          "type": "bytes32"
        },
        {
          "name": "_data",
          "type": "bytes"
        }
      ],
      "name": "simActualReturn",
      "outputs": [
        {
          "name": "needAmount",
          "type": "uint256"
        },
        {
          "name": "canChange",
          "type": "bool"
        }
      ],
      "payable": false,
      "stateMutability": "view",
      "type": "function"
    },
    {
      "constant": true,
      "inputs": [
        {
          "name": "",
          "type": "bytes32"
        }
      ],
      "name": "getEnd",
      "outputs": [
        {
          "name": "",
          "type": "uint256"
        }
      ],
      "payable": false,
      "stateMutability": "view",
      "type": "function"
    },
    {
      "constant": true,
      "inputs": [
        {
          "name": "",
          "type": "bytes32"
        }
      ],
      "name": "getNoMoreBets",
      "outputs": [
        {
          "name": "",
          "type": "uint256"
        }
      ],
      "payable": false,
      "stateMutability": "view",
      "type": "function"
    },
    {
      "constant": true,
      "inputs": [
        {
          "name": "",
          "type": "bytes32"
        },
        {
          "name": "_data",
          "type": "bytes"
        }
      ],
      "name": "simNeedAmount",
      "outputs": [
        {
          "name": "needAmount",
          "type": "uint256"
        },
        {
          "name": "canChange",
          "type": "bool"
        }
      ],
      "payable": false,
      "stateMutability": "view",
      "type": "function"
    }
  ],
  "bytecode": "0x608060405234801561001057600080fd5b506040516020806118678339810180604052602081101561003057600080fd5b5051600080546001600160a01b03199081163317909155600180546001600160a01b03909316929091169190911790556117f88061006f6000396000f3fe608060405234801561001057600080fd5b50600436106101165760003560e01c806373aca9ab116100a2578063a03fa7e311610071578063a03fa7e314610547578063bcaa2caf14610140578063d715abf91461056d578063f7d52893146105f0578063f97136af1461066557610116565b806373aca9ab146104e15780637712eee8146104fe5780638da5cb5b146105225780639d10615b1461052a57610116565b806343272fc9116100e957806343272fc9146102295780634749a534146102b657806352ad8400146103445780636a651876146103d15780636c2ca4851461045e57610116565b8063081152ee1461011b57806331dd2f0e14610140578063333271d01461016f5780633fca28f214610192575b600080fd5b61013e6004803603604081101561013157600080fd5b508035906020013561066d565b005b61015d6004803603602081101561015657600080fd5b503561070e565b60408051918252519081900360200190f35b61013e6004803603604081101561018557600080fd5b5080359060200135610714565b610215600480360360608110156101a857600080fd5b6001600160a01b0382351691602081013591810190606081016040820135600160201b8111156101d757600080fd5b8201836020820111156101e957600080fd5b803590602001918460018302840111600160201b8311171561020a57600080fd5b5090925090506107b5565b604080519115158252519081900360200190f35b61015d6004803603608081101561023f57600080fd5b6001600160a01b038235811692602081013592604082013590921691810190608081016060820135600160201b81111561027857600080fd5b82018360208201111561028a57600080fd5b803590602001918460018302840111600160201b831117156102ab57600080fd5b509092509050610813565b61032b600480360360408110156102cc57600080fd5b81359190810190604081016020820135600160201b8111156102ed57600080fd5b8201836020820111156102ff57600080fd5b803590602001918460018302840111600160201b8311171561032057600080fd5b50909250905061090f565b6040805192835290151560208301528051918290030190f35b6102156004803603608081101561035a57600080fd5b6001600160a01b038235811692602081013592604082013590921691810190608081016060820135600160201b81111561039357600080fd5b8201836020820111156103a557600080fd5b803590602001918460018302840111600160201b831117156103c657600080fd5b5090925090506109bb565b61015d600480360360808110156103e757600080fd5b6001600160a01b038235811692602081013592604082013590921691810190608081016060820135600160201b81111561042057600080fd5b82018360208201111561043257600080fd5b803590602001918460018302840111600160201b8311171561045357600080fd5b509092509050610f21565b6102156004803603606081101561047457600080fd5b6001600160a01b0382351691602081013591810190606081016040820135600160201b8111156104a357600080fd5b8201836020820111156104b557600080fd5b803590602001918460018302840111600160201b831117156104d657600080fd5b509092509050611435565b61015d600480360360208110156104f757600080fd5b503561143f565b610506611451565b604080516001600160a01b039092168252519081900360200190f35b610506611460565b61015d6004803603602081101561054057600080fd5b503561146f565b6102156004803603602081101561055d57600080fd5b50356001600160a01b0316611481565b6102156004803603606081101561058357600080fd5b6001600160a01b0382351691602081013591810190606081016040820135600160201b8111156105b257600080fd5b8201836020820111156105c457600080fd5b803590602001918460018302840111600160201b831117156105e557600080fd5b509092509050611555565b61032b6004803603604081101561060657600080fd5b81359190810190604081016020820135600160201b81111561062757600080fd5b82018360208201111561063957600080fd5b803590602001918460018302840111600160201b8311171561065a57600080fd5b5090925090506115fb565b61015d6116c7565b6000546001600160a01b031633146106bd5760408051600160e51b62461bcd02815260206004820152601e60248201526000805160206117ad833981519152604482015290519081900360640190fd5b600082815260036020908152604091829020839055815184815290810183905281517f2f797d9e895271236f9486994ffcefb1e27e7a031d9ec1beda769d4c8ac269ea929181900390910190a15050565b50600090565b6000546001600160a01b031633146107645760408051600160e51b62461bcd02815260206004820152601e60248201526000805160206117ad833981519152604482015290519081900360640190fd5b600082815260026020908152604091829020839055815184815290810183905281517f7c36f4f09129892bcf3dc5b110d9b3644884bbdd87fa190dcc3b1e9877dc4384929181900390910190a15050565b6001546000906001600160a01b031633146108085760408051600160e51b62461bcd028152602060048201526019602482015260008051602061178d833981519152604482015290519081900360640190fd5b506001949350505050565b6001546000906001600160a01b031633146108665760408051600160e51b62461bcd028152602060048201526019602482015260008051602061178d833981519152604482015290519081900360640190fd5b6000546001600160a01b038781169116146108b95760408051600160e51b62461bcd02815260206004820152601e60248201526000805160206117ad833981519152604482015290519081900360640190fd5b610903600084848080601f016020809104026020016040519081016040528093929190818152602001838380828437600092019190915250929392505063ffffffff6116ce169050565b90505b95945050505050565b60008061095c600085858080601f016020809104026020016040519081016040528093929190818152602001838380828437600092019190915250929392505063ffffffff6116ce169050565b9150816109af57604080516020601f86018190048102820181019092528481526109a89190868680838501838280828437600092019190915250929392505063ffffffff6116ce169050565b91506109b3565b5060015b935093915050565b600080610a08600085858080601f016020809104026020016040519081016040528093929190818152602001838380828437600092019190915250929392505063ffffffff6116ce169050565b60015460408051600160e21b633bd0f023028152600481018a9052905192935060009283926001600160a01b03169163ef43c08c916024808301926060929190829003018186803b158015610a5c57600080fd5b505afa158015610a70573d6000803e3d6000fd5b505050506040513d6060811015610a8657600080fd5b508051602090910151909250905082610bbd5760015460408051600160e21b633de222bb0281526001600160a01b038a8116600483015285811660248301529151919092169163f7888aec916044808301926020929190829003018186803b158015610af157600080fd5b505afa158015610b05573d6000803e3d6000fd5b505050506040513d6020811015610b1b57600080fd5b5051604080516020601f8901819004810282018101909252878152610b629190898980838501838280828437600092019190915250929392505063ffffffff6116ce169050565b1015610bb85760408051600160e51b62461bcd02815260206004820152601f60248201527f546865206465706f736974657220646f6e7420686176652062616c616e636500604482015290519081900360640190fd5b610f12565b610bcf896001600160a01b0316611735565b15610c0e57604051600160e51b62461bcd02815260040180806020018281038252602381526020018061176a6023913960400191505060405180910390fd5b60015460408051600160e21b633de222bb0281526001600160a01b038a8116600483015285811660248301529151919092169163f7888aec916044808301926020929190829003018186803b158015610c6657600080fd5b505afa158015610c7a573d6000803e3d6000fd5b505050506040513d6020811015610c9057600080fd5b5051831115610ce95760408051600160e51b62461bcd02815260206004820152601c60248201527f54686520706c6179657220646f6e7420686176652062616c616e636500000000604482015290519081900360640190fd5b604080516020601f8801819004810282018101909252868152600091610d3091898980838501838280828437600092019190915250929392505063ffffffff6116ce169050565b600081815260026020526040902054909150610d965760408051600160e51b62461bcd02815260206004820152601e60248201527f546865206d756c7469706c6965722073686f756c64206e6f7420626520300000604482015290519081900360640190fd5b80610de1604089898080601f016020809104026020016040519081016040528093929190818152602001838380828437600092019190915250929392505063ffffffff6116ce169050565b10610e365760408051600160e51b62461bcd02815260206004820152601460248201527f4f7074696f6e206f7574206f6620626f756e6473000000000000000000000000604482015290519081900360640190fd5b600081815260026020526040812054620f424090860260008c8152600360205260409020549190049150811115610eb75760408051600160e51b62461bcd02815260206004820152601a60248201527f5468652062657420616d6f756e742069747320746f2068696768000000000000604482015290519081900360640190fd5b82811115610f0f5760408051600160e51b62461bcd02815260206004820152601e60248201527f54686520636f6e747261637420646f6e7420686176652062616c616e63650000604482015290519081900360640190fd5b50505b50600198975050505050505050565b6001546000906001600160a01b03163314610f745760408051600160e51b62461bcd028152602060048201526019602482015260008051602061178d833981519152604482015290519081900360640190fd5b610fbe600084848080601f016020809104026020016040519081016040528093929190818152602001838380828437600092019190915250929392505063ffffffff6116ce169050565b90508061103b57604080516020601f850181900481028201810190925283815261100a9190858580838501838280828437600092019190915250929392505063ffffffff6116ce169050565b6040519091507fed21248cb703b524cc0029bb8669df941baca560163a3bc6ad184e7e9c26807090600090a1610906565b61104d866001600160a01b0316611735565b1561108c57604051600160e51b62461bcd02815260040180806020018281038252602381526020018061176a6023913960400191505060405180910390fd5b604080516020601f85018190048102820181019092528381526000916110d391868680838501838280828437600092019190915250929392505063ffffffff6116ce169050565b600081815260026020526040812054919250620f424084830260008a81526003602052604090205491900491508111156111575760408051600160e51b62461bcd02815260206004820152601c60248201527f54686520616d6f756e74206f662062657420697320746f206869676800000000604482015290519081900360640190fd5b60015460408051600160e21b633bd0f023028152600481018b905290516000926001600160a01b03169163ef43c08c916024808301926060929190829003018186803b1580156111a657600080fd5b505afa1580156111ba573d6000803e3d6000fd5b505050506040513d60608110156111d057600080fd5b506020015190508181101561122f5760408051600160e51b62461bcd02815260206004820152601760248201527f496e73756666696369656e742062657420666f756e6473000000000000000000604482015290519081900360640190fd5b600061127b604089898080601f016020809104026020016040519081016040528093929190818152602001838380828437600092019190915250929392505063ffffffff6116ce169050565b90508481106112be57604051600160e51b62461bcd02815260040180806020018281038252602e81526020018061173c602e913960400191505060405180910390fd5b600085424460014303406040516020018084815260200183815260200182815260200193505050506040516020818303038152906040528051906020012060001c8161130657fe5b069050818114156113df5760015460408051600160e11b634be846f70281526001600160a01b038d81166004830152602482018f905260448201889052915191909216916397d08dee91606480830192600092919082900301818387803b15801561137057600080fd5b505af1158015611384573d6000803e3d6000fd5b505060408051898152602081018990528082018590526060810186905290517fa8e5116b10f6bc252038b8927939c96eedbd5b9b3103c44c83bffd92996c41f99350908190036080019150a160009650505050505050610906565b60408051878152602081018790528082018390526060810184905290517fff1ff7e80e3a256a45b864dc9466ea84e6429b7f9f02cb754273d316fc6d44139181900360800190a150505050505095945050505050565b6001949350505050565b60036020526000908152604090205481565b6001546001600160a01b031681565b6000546001600160a01b031681565b60026020526000908152604090205481565b600080546001600160a01b031633146114d25760408051600160e51b62461bcd02815260206004820152601e60248201526000805160206117ad833981519152604482015290519081900360640190fd5b6001600160a01b0382166115305760408051600160e51b62461bcd02815260206004820152601860248201527f307830204973206e6f7420612076616c6964206f776e65720000000000000000604482015290519081900360640190fd5b50600080546001600160a01b0383166001600160a01b03199091161790556001919050565b6001546000906001600160a01b031633146115a85760408051600160e51b62461bcd028152602060048201526019602482015260008051602061178d833981519152604482015290519081900360640190fd5b6000546001600160a01b038681169116146108085760408051600160e51b62461bcd02815260206004820152601e60248201526000805160206117ad833981519152604482015290519081900360640190fd5b600080611648600085858080601f016020809104026020016040519081016040528093929190818152602001838380828437600092019190915250929392505063ffffffff6116ce169050565b915081156109b357620f4240600260006116a2602088888080601f016020809104026020016040519081016040528093929190818152602001838380828437600092019190915250929392505063ffffffff6116ce169050565b8152602001908152602001600020548302816116ba57fe5b0495600195509350505050565b620f424081565b6000816020018351101561172c5760408051600160e51b62461bcd02815260206004820152601260248201527f52656164206f7574206f6620626f756e64730000000000000000000000000000604482015290519081900360640190fd5b50016020015190565b3b15159056fe546865206f7074696f6e2073686f756c6420626520696e73696465206f662074686520706f73736962696c6974795468652073656e6465722073686f756c64206e6f74206265206120636f6e74726163744f6e6c79207468652047616d626c696e67204d616e6167657200000000000000546865206f776e65722073686f756c64206265207468652073656e6465720000a165627a7a723058208d951b86ff214a7cd3f999520c764a73fe2fee4bc80ac3c5723991c9ee5e3ae20029",
  "source": "pragma solidity ^0.5.6;\n\nimport \"../interfaces/IModel.sol\";\n\nimport \"../GamblingManager.sol\";\nimport \"../utils/BytesLib.sol\";\nimport \"../utils/Ownable.sol\";\nimport \"../utils/IsContract.sol\";\n\n\ncontract CoinFlip is IModel, Ownable {\n    using IsContract for address;\n    using BytesLib for bytes;\n\n    event SetMaxBetAmount(bytes32 _id, uint256 _maxBetAmount);\n    event SetMultiplier(uint256 _possibility, uint256 _multiplier);\n\n    event Deposit();\n    event Win(uint256 _possibility, uint256 _multiplier, uint256 _luckyNumber, uint256 _betNumber);\n    event Lose(uint256 _possibility, uint256 _multiplier, uint256 _luckyNumber, uint256 _betNumber);\n\n    GamblingManager public gamblingManager;\n\n    uint256 public constant MULTIPLIER_BASE = 1000000;\n\n    mapping(uint256 => uint256) public possibilitiesToMultiplier;\n    mapping(bytes32 => uint256) public toMaxBetAmount;\n\n    modifier onlyGamblingManager() {\n        require(msg.sender == address(gamblingManager), \"Only the Gambling Manager\");\n        _;\n    }\n\n    constructor(GamblingManager _gamblingManager) public {\n        gamblingManager = _gamblingManager;\n    }\n\n    function setMaxBetAmount(bytes32 _id, uint256 _maxBetAmount) external onlyOwner {\n        toMaxBetAmount[_id] = _maxBetAmount;\n        emit SetMaxBetAmount(_id, _maxBetAmount);\n    }\n\n    function setMultiplier(uint256 _possibility, uint256 _multiplier) external onlyOwner {\n        possibilitiesToMultiplier[_possibility] = _multiplier;\n        emit SetMultiplier(_possibility, _multiplier);\n    }\n\n    function create(address, bytes32, bytes calldata) external onlyGamblingManager returns(bool) {\n        return true;\n    }\n\n    /**\n        @dev This emits when the obligation of debt change.\n\n        @param _sender The sender of the tx\n        @param _id Id of the bet on gambling manager\n        @param _player The bet player, the win amount will send of this\n        @param _data If the first uint256 its 0: its a deposit, the second uint256 is the amount of the deposit\n                      Otherwise, the first uint256 is the amount of the bet, the second id the possibility and the third is the option(lucky number)\n    */\n    function play(address _sender, bytes32 _id, address _player, bytes calldata _data) external onlyGamblingManager returns(uint256 needAmount) {\n        needAmount = _data.toUint256(0);\n\n        if (needAmount == 0) { // Deposit to bet\n            needAmount = _data.toUint256(32);\n            emit Deposit();\n        } else { // Play Bet\n            require(!_sender.isContract(), \"The sender should not be a contract\");\n\n            uint256 possibility = _data.toUint256(32);\n            uint256 multiplier = possibilitiesToMultiplier[possibility];\n            uint256 winAmount = (needAmount * multiplier) / MULTIPLIER_BASE;\n\n            require(winAmount <= toMaxBetAmount[_id], \"The amount of bet is to high\");\n            (, uint256 balance,) = gamblingManager.toBet(_id);\n            require(balance >= winAmount, \"Insufficient bet founds\");\n\n            uint256 option = _data.toUint256(64);\n            require(option < possibility, \"The option should be inside of the possibility\");\n\n            uint256 winNumber = uint256((keccak256(abi.encodePacked(now, block.difficulty, blockhash(block.number-1))))) % possibility;\n\n            if (winNumber == option) {\n                gamblingManager.modelTransfer(_player, _id, winAmount);\n                emit Win(possibility, multiplier, winNumber, option);\n                return 0;\n            }\n            emit Lose(possibility, multiplier, winNumber, option);\n        }\n    }\n\n    function collect(address _sender, bytes32, address, bytes calldata _data) external onlyGamblingManager returns(uint256) {\n        require(_sender == owner, \"The owner should be the sender\");\n        return _data.toUint256(0);\n    }\n\n    function cancel(address _sender, bytes32, bytes calldata) external onlyGamblingManager returns(bool) {\n        require(_sender == owner, \"The owner should be the sender\");\n        return true;\n    }\n\n    function validateCreate(address, bytes32, bytes calldata) external view returns(bool) {\n        return true;\n    }\n\n    function validatePlay(address _sender, bytes32 _id, address _player, bytes calldata _data) external view returns(bool) {\n        uint256 needAmount = _data.toUint256(0);\n        (address erc20, uint256 balance,) = gamblingManager.toBet(_id);\n\n        if (needAmount == 0) { // Deposit to bet\n            require(_data.toUint256(32) >= gamblingManager.balanceOf(_player, erc20), \"The depositer dont have balance\");\n        } else { // Play Bet\n            require(!_sender.isContract(), \"The sender should not be a contract\");\n            require(needAmount <= gamblingManager.balanceOf(_player, erc20), \"The player dont have balance\");\n\n            uint256 possibility = _data.toUint256(32);\n            require(possibilitiesToMultiplier[possibility] != 0, \"The multiplier should not be 0\");\n            require(_data.toUint256(64) < possibility, \"Option out of bounds\");\n\n            uint256 winAmount = (needAmount * possibilitiesToMultiplier[possibility]) / MULTIPLIER_BASE;\n            require(winAmount <= toMaxBetAmount[_id], \"The bet amount its to high\");\n            require(winAmount <= balance, \"The contract dont have balance\");\n        }\n        return true;\n    }\n\n    function simActualReturn(bytes32, bytes calldata _data) external view returns (uint256 needAmount, bool canChange) {\n        needAmount = _data.toUint256(0);\n\n        if (needAmount != 0) { // Play to bet\n            needAmount = (needAmount * possibilitiesToMultiplier[_data.toUint256(32)]) / MULTIPLIER_BASE;\n            canChange = true;\n        }\n    }\n\n    function getEnd(bytes32) external view returns (uint256) {\n        return 0;\n    }\n\n    function getNoMoreBets(bytes32) external view returns (uint256) {\n        return 0;\n    }\n\n    function simNeedAmount(bytes32, bytes calldata _data) external view returns (uint256 needAmount, bool canChange) {\n        needAmount = _data.toUint256(0);\n\n        if (needAmount == 0) { // Deposit to bet\n            needAmount = _data.toUint256(32);\n        } else {\n            canChange = true;\n        }\n    }\n}\n",
  "sourcePath": "/home/rcn-d1/workspace/eth-gambling-api/contracts/model/CoinFlip.sol",
  "compiler": {
    "name": "solc",
    "version": "0.5.6+commit.b259423e.Emscripten.clang"
  },
  "schemaVersion": "3.0.11",
  "updatedAt": "2019-06-30T01:08:29.546Z",
  "devdoc": {
    "methods": {
      "play(address,bytes32,address,bytes)": {
        "details": "This emits when the obligation of debt change.",
        "params": {
          "_data": "If the first uint256 its 0: its a deposit, the second uint256 is the amount of the deposit Otherwise, the first uint256 is the amount of the bet, the second id the possibility and the third is the option(lucky number)",
          "_id": "Id of the bet on gambling manager",
          "_player": "The bet player, the win amount will send of this",
          "_sender": "The sender of the tx"
        }
      },
      "transferTo(address)": {
        "details": "Transfers the ownership of the contract.",
        "params": {
          "_to": "Address of the new owner"
        }
      }
    }
  },
  "userdoc": {
    "methods": {}
  }
}