{
  "contractName": "Football",
  "abi": [
    {
      "constant": true,
      "inputs": [],
      "name": "DRAW",
      "outputs": [
        {
          "name": "",
          "type": "bytes32"
        }
      ],
      "payable": false,
      "stateMutability": "view",
      "type": "function"
    },
    {
      "constant": true,
      "inputs": [
        {
          "name": "_creator",
          "type": "address"
        },
        {
          "name": "_nonce",
          "type": "uint256"
        },
        {
          "name": "withNonce",
          "type": "bool"
        }
      ],
      "name": "buildId",
      "outputs": [
        {
          "name": "",
          "type": "bytes32"
        }
      ],
      "payable": false,
      "stateMutability": "pure",
      "type": "function"
    },
    {
      "constant": true,
      "inputs": [
        {
          "name": "",
          "type": "address"
        }
      ],
      "name": "nonces",
      "outputs": [
        {
          "name": "",
          "type": "uint256"
        }
      ],
      "payable": false,
      "stateMutability": "view",
      "type": "function"
    },
    {
      "constant": true,
      "inputs": [],
      "name": "owner",
      "outputs": [
        {
          "name": "",
          "type": "address"
        }
      ],
      "payable": false,
      "stateMutability": "view",
      "type": "function"
    },
    {
      "constant": false,
      "inputs": [
        {
          "name": "_to",
          "type": "address"
        }
      ],
      "name": "transferTo",
      "outputs": [
        {
          "name": "",
          "type": "bool"
        }
      ],
      "payable": false,
      "stateMutability": "nonpayable",
      "type": "function"
    },
    {
      "constant": true,
      "inputs": [
        {
          "name": "",
          "type": "bytes32"
        }
      ],
      "name": "games",
      "outputs": [
        {
          "name": "team1",
          "type": "bytes32"
        },
        {
          "name": "team2",
          "type": "bytes32"
        },
        {
          "name": "winTeam",
          "type": "bytes32"
        },
        {
          "name": "noMoreBets",
          "type": "uint256"
        }
      ],
      "payable": false,
      "stateMutability": "view",
      "type": "function"
    },
    {
      "anonymous": false,
      "inputs": [
        {
          "indexed": false,
          "name": "_now",
          "type": "uint256"
        },
        {
          "indexed": false,
          "name": "_gameId",
          "type": "bytes32"
        },
        {
          "indexed": false,
          "name": "_noMoreBets",
          "type": "uint256"
        },
        {
          "indexed": false,
          "name": "_team1",
          "type": "bytes32"
        },
        {
          "indexed": false,
          "name": "_team2",
          "type": "bytes32"
        }
      ],
      "name": "NewGame",
      "type": "event"
    },
    {
      "anonymous": false,
      "inputs": [
        {
          "indexed": false,
          "name": "_now",
          "type": "uint256"
        },
        {
          "indexed": false,
          "name": "_gameId",
          "type": "bytes32"
        },
        {
          "indexed": false,
          "name": "_winTeam",
          "type": "bytes32"
        }
      ],
      "name": "SetWinner",
      "type": "event"
    },
    {
      "constant": true,
      "inputs": [
        {
          "name": "_eventId",
          "type": "bytes32"
        },
        {
          "name": "",
          "type": "bytes"
        }
      ],
      "name": "validateCreate",
      "outputs": [
        {
          "name": "",
          "type": "bool"
        }
      ],
      "payable": false,
      "stateMutability": "view",
      "type": "function"
    },
    {
      "constant": true,
      "inputs": [
        {
          "name": "_eventId",
          "type": "bytes32"
        },
        {
          "name": "_option",
          "type": "bytes32"
        },
        {
          "name": "",
          "type": "bytes"
        }
      ],
      "name": "validatePlay",
      "outputs": [
        {
          "name": "",
          "type": "bool"
        }
      ],
      "payable": false,
      "stateMutability": "view",
      "type": "function"
    },
    {
      "constant": true,
      "inputs": [
        {
          "name": "_gameId",
          "type": "bytes32"
        }
      ],
      "name": "whoWon",
      "outputs": [
        {
          "name": "",
          "type": "bytes32"
        }
      ],
      "payable": false,
      "stateMutability": "view",
      "type": "function"
    },
    {
      "constant": false,
      "inputs": [
        {
          "name": "_team1",
          "type": "bytes32"
        },
        {
          "name": "_team2",
          "type": "bytes32"
        },
        {
          "name": "_noMoreBets",
          "type": "uint256"
        }
      ],
      "name": "addGame",
      "outputs": [
        {
          "name": "gameId",
          "type": "bytes32"
        }
      ],
      "payable": false,
      "stateMutability": "nonpayable",
      "type": "function"
    },
    {
      "constant": false,
      "inputs": [
        {
          "name": "_gameId",
          "type": "bytes32"
        },
        {
          "name": "_winTeam",
          "type": "bytes32"
        }
      ],
      "name": "setWinTeam",
      "outputs": [],
      "payable": false,
      "stateMutability": "nonpayable",
      "type": "function"
    }
  ],
  "bytecode": "0x6080604052600180546001600160a01b03191633179055610adc806100256000396000f3fe608060405234801561001057600080fd5b50600436106100a95760003560e01c80638da5cb5b116100715780638da5cb5b146101d7578063a03fa7e3146101fb578063eb40baf314610221578063f3ce3d9e14610298578063f579f882146102b5578063ff720536146102f8576100a9565b80631417b111146100ae578063455ed8df146100d3578063619d36ef1461016357806379a7de4f1461017d5780637ecebe00146101b1575b600080fd5b6100d1600480360360408110156100c457600080fd5b5080359060200135610321565b005b61014f600480360360608110156100e957600080fd5b81359160208101359181019060608101604082013564010000000081111561011057600080fd5b82018360208201111561012257600080fd5b8035906020019184600183028401116401000000008311171561014457600080fd5b50909250905061055f565b604080519115158252519081900360200190f35b61016b610641565b60408051918252519081900360200190f35b61016b6004803603606081101561019357600080fd5b506001600160a01b0381351690602081013590604001351515610649565b61016b600480360360208110156101c757600080fd5b50356001600160a01b0316610691565b6101df6106a3565b604080516001600160a01b039092168252519081900360200190f35b61014f6004803603602081101561021157600080fd5b50356001600160a01b03166106b2565b61014f6004803603604081101561023757600080fd5b8135919081019060408101602082013564010000000081111561025957600080fd5b82018360208201111561026b57600080fd5b8035906020019184600183028401116401000000008311171561028d57600080fd5b509092509050610798565b61016b600480360360208110156102ae57600080fd5b5035610805565b6102d2600480360360208110156102cb57600080fd5b5035610872565b604080519485526020850193909352838301919091526060830152519081900360800190f35b61016b6004803603606081101561030e57600080fd5b508035906020810135906040013561089b565b6001546001600160a01b031633146103835760408051600160e51b62461bcd02815260206004820152601e60248201527f546865206f776e65722073686f756c64206265207468652073656e6465720000604482015290519081900360640190fd5b600082815260026020526040902060038101544210156103ed5760408051600160e51b62461bcd02815260206004820152601260248201527f5468652067616d6520697320636c6f7365640000000000000000000000000000604482015290519081900360640190fd5b60038101546104465760408051600160e51b62461bcd02815260206004820152600e60248201527f696e76616c69642067616d654964000000000000000000000000000000000000604482015290519081900360640190fd5b6002810154156104a05760408051600160e51b62461bcd02815260206004820152601160248201527f5468652077696e6e657220697320736574000000000000000000000000000000604482015290519081900360640190fd5b80548314806104b25750806001015483145b806104c05750636472617783145b6105145760408051600160e51b62461bcd02815260206004820152600e60248201527f496e76616c69642077696e6e6572000000000000000000000000000000000000604482015290519081900360640190fd5b60028101839055604080514281526020810185905280820184905290517e7dbe4b0ab3779cd8f97a7aa55b53ccf6e22b5817a78979c4ddbe5d650adf8c9181900360600190a1505050565b60008481526002602052604081206003810154421080156105835750600381015415155b6105c157604051600160e51b62461bcd028152600401808060200182810382526024815260200180610a366024913960400191505060405180910390fd5b80548514806105d35750806001015485145b806105e15750636472617785145b6106355760408051600160e51b62461bcd02815260206004820152600e60248201527f496e76616c6964206f7074696f6e000000000000000000000000000000000000604482015290519081900360640190fd5b50600195945050505050565b636472617781565b604080516001600160a01b039490941660601b602080860191909152603485019390935290151560f81b60548401528051808403603501815260559093019052815191012090565b60006020819052908152604090205481565b6001546001600160a01b031681565b6001546000906001600160a01b031633146107175760408051600160e51b62461bcd02815260206004820152601e60248201527f546865206f776e65722073686f756c64206265207468652073656e6465720000604482015290519081900360640190fd5b6001600160a01b0382166107755760408051600160e51b62461bcd02815260206004820152601860248201527f307830204973206e6f7420612076616c6964206f776e65720000000000000000604482015290519081900360640190fd5b50600180546001600160a01b0383166001600160a01b0319909116178155919050565b60008381526002602052604081206003810154421080156107bc5750600381015415155b6107fa57604051600160e51b62461bcd028152600401808060200182810382526024815260200180610a366024913960400191505060405180910390fd5b506001949350505050565b60008181526002602081905260408220908101541580159061082a5750600381015415155b61086857604051600160e51b62461bcd028152600401808060200182810382526033815260200180610a7e6033913960400191505060405180910390fd5b6002015492915050565b600260208190526000918252604090912080546001820154928201546003909201549092919084565b6001546000906001600160a01b031633146109005760408051600160e51b62461bcd02815260206004820152601e60248201527f546865206f776e65722073686f756c64206265207468652073656e6465720000604482015290519081900360640190fd5b5060408051602080820186905281830185905260608083018590528351808403909101815260809092019092528051910120831580159061094057508215155b801561094c5750828414155b801561095757508142105b61099557604051600160e51b62461bcd028152600401808060200182810382526024815260200180610a5a6024913960400191505060405180910390fd5b60408051608080820183528682526020808301878152600084860181815260608087018a8152898452600280875293899020975188559351600188015590519186019190915590516003909401939093558351428152908101859052808401869052918201879052810185905290517fc9e0738d69a7dcaafe528996d36108925ffe90f50a268ae85cdd49bc028a9c1c9181900360a00190a1939250505056fe5468652067616d6520697320636c6f736564206f7220696e76616c69642067616d6549645465616d20696e76616c6964206f72206e6f4d6f72654265747320697320746f206f6c645468652067616d6520646f206e6f74206861766520612077696e6e657220796574206f7220696e76616c69642067616d654964a165627a7a72305820bfc446c01ad1a25d660fe77dee2d6e509a3ba02224cd903e2d5e0ed728620acc0029",
  "source": "pragma solidity ^0.5.6;\n\nimport \"../utils/Ownable.sol\";\n\nimport \"../interfaces/IOracle.sol\";\n\n\ncontract IdHelper {\n    mapping(address => uint256) public nonces;\n\n    function buildId(address _creator, uint256 _nonce, bool withNonce ) external pure returns (bytes32) {\n        return keccak256(abi.encodePacked(_creator, _nonce, withNonce));\n    }\n}\n\n\ncontract Football is IOracle, IdHelper, Ownable {\n    event NewGame(uint256 _now, bytes32 _gameId, uint256 _noMoreBets, bytes32 _team1, bytes32 _team2);\n    event SetWinner(uint256 _now, bytes32 _gameId, bytes32 _winTeam);\n\n    bytes32 public constant DRAW = 0x0000000000000000000000000000000000000000000000000000000064726177;\n\n    struct Game {\n        bytes32 team1;\n        bytes32 team2;\n        bytes32 winTeam;\n\n        uint256 noMoreBets;\n    }\n\n    mapping(bytes32 => Game) public games;\n\n    function validateCreate(bytes32 _eventId, bytes calldata) external view returns(bool) {\n        Game storage game = games[_eventId];\n        require(\n            now < game.noMoreBets && game.noMoreBets != 0,\n            \"The game is closed or invalid gameId\"\n        );\n\n        return true;\n    }\n\n    function validatePlay(bytes32 _eventId, bytes32 _option, bytes calldata) external view returns(bool) {\n        Game storage game = games[_eventId];\n        require(\n            now < game.noMoreBets && game.noMoreBets != 0,\n            \"The game is closed or invalid gameId\"\n        );\n\n        require(\n            _option == game.team1 || _option == game.team2 || _option == DRAW,\n            \"Invalid option\"\n        );\n\n        return true;\n    }\n\n    function whoWon(bytes32 _gameId) external view returns(bytes32) {\n        Game storage game = games[_gameId];\n        require(\n            game.winTeam != 0x0 &&\n                game.noMoreBets != 0,\n            \"The game do not have a winner yet or invalid gameId\"\n        );\n\n        return game.winTeam;\n    }\n\n    function addGame(\n        bytes32 _team1,\n        bytes32 _team2,\n        uint256 _noMoreBets\n    ) external onlyOwner returns(bytes32 gameId) {\n        gameId = keccak256(\n            abi.encodePacked(\n                _team1,\n                _team2,\n                _noMoreBets\n            )\n        );\n\n        require(\n            _team1 != 0x0 && _team2 != 0x0 && _team1 != _team2 && now < _noMoreBets,\n            \"Team invalid or noMoreBets is to old\"\n        );\n\n        games[gameId] = Game({\n            team1: _team1,\n            team2: _team2,\n            winTeam: 0x0,\n            noMoreBets: _noMoreBets\n        });\n\n        emit NewGame(\n            now,\n            gameId,\n            _noMoreBets,\n            _team1,\n            _team2\n        );\n    }\n\n    // what happens if the owner makes a mistake and puts an incorrect winner\n    function setWinTeam(bytes32 _gameId, bytes32 _winTeam) external onlyOwner {\n        Game storage game = games[_gameId];\n        require(now >= game.noMoreBets, \"The game is closed\");\n        require(game.noMoreBets != 0, \"invalid gameId\");\n        require(game.winTeam == 0, \"The winner is set\");\n        require(_gameId == game.team1 || _gameId == game.team2 || _gameId == DRAW, \"Invalid winner\");\n\n        game.winTeam = _gameId;\n\n        emit SetWinner(now, _gameId, _winTeam);\n    }\n}\n",
  "sourcePath": "/home/rcn-d1/workspace/eth-gambling-api/contracts/oracle/Football.sol",
  "compiler": {
    "name": "solc",
    "version": "0.5.6+commit.b259423e.Emscripten.clang"
  },
  "schemaVersion": "3.0.11",
  "updatedAt": "2019-06-30T01:08:29.558Z",
  "devdoc": {
    "methods": {
      "transferTo(address)": {
        "details": "Transfers the ownership of the contract.",
        "params": {
          "_to": "Address of the new owner"
        }
      }
    }
  },
  "userdoc": {
    "methods": {}
  }
}