{
  "contractName": "StandardERC20",
  "abi": [
    {
      "constant": true,
      "inputs": [],
      "name": "totalSupply",
      "outputs": [
        {
          "name": "",
          "type": "uint256"
        }
      ],
      "payable": false,
      "stateMutability": "view",
      "type": "function"
    },
    {
      "constant": true,
      "inputs": [
        {
          "name": "",
          "type": "address"
        }
      ],
      "name": "balances",
      "outputs": [
        {
          "name": "",
          "type": "uint256"
        }
      ],
      "payable": false,
      "stateMutability": "view",
      "type": "function"
    },
    {
      "constant": true,
      "inputs": [
        {
          "name": "",
          "type": "address"
        },
        {
          "name": "",
          "type": "address"
        }
      ],
      "name": "allowed",
      "outputs": [
        {
          "name": "",
          "type": "uint256"
        }
      ],
      "payable": false,
      "stateMutability": "view",
      "type": "function"
    },
    {
      "constant": true,
      "inputs": [],
      "name": "RETURN_FALSE_ADDRESS",
      "outputs": [
        {
          "name": "",
          "type": "address"
        }
      ],
      "payable": false,
      "stateMutability": "view",
      "type": "function"
    },
    {
      "anonymous": false,
      "inputs": [
        {
          "indexed": true,
          "name": "_from",
          "type": "address"
        },
        {
          "indexed": true,
          "name": "_to",
          "type": "address"
        },
        {
          "indexed": false,
          "name": "_value",
          "type": "uint256"
        }
      ],
      "name": "Transfer",
      "type": "event"
    },
    {
      "anonymous": false,
      "inputs": [
        {
          "indexed": true,
          "name": "_owner",
          "type": "address"
        },
        {
          "indexed": true,
          "name": "_spender",
          "type": "address"
        },
        {
          "indexed": false,
          "name": "_value",
          "type": "uint256"
        }
      ],
      "name": "Approval",
      "type": "event"
    },
    {
      "constant": false,
      "inputs": [
        {
          "name": "_to",
          "type": "address"
        },
        {
          "name": "_value",
          "type": "uint256"
        }
      ],
      "name": "transfer",
      "outputs": [
        {
          "name": "",
          "type": "bool"
        }
      ],
      "payable": false,
      "stateMutability": "nonpayable",
      "type": "function"
    },
    {
      "constant": false,
      "inputs": [
        {
          "name": "_from",
          "type": "address"
        },
        {
          "name": "_to",
          "type": "address"
        },
        {
          "name": "_value",
          "type": "uint256"
        }
      ],
      "name": "transferFrom",
      "outputs": [
        {
          "name": "success",
          "type": "bool"
        }
      ],
      "payable": false,
      "stateMutability": "nonpayable",
      "type": "function"
    },
    {
      "constant": true,
      "inputs": [
        {
          "name": "_owner",
          "type": "address"
        }
      ],
      "name": "balanceOf",
      "outputs": [
        {
          "name": "balance",
          "type": "uint256"
        }
      ],
      "payable": false,
      "stateMutability": "view",
      "type": "function"
    },
    {
      "constant": false,
      "inputs": [
        {
          "name": "_spender",
          "type": "address"
        },
        {
          "name": "_value",
          "type": "uint256"
        }
      ],
      "name": "approve",
      "outputs": [
        {
          "name": "success",
          "type": "bool"
        }
      ],
      "payable": false,
      "stateMutability": "nonpayable",
      "type": "function"
    },
    {
      "constant": true,
      "inputs": [
        {
          "name": "_owner",
          "type": "address"
        },
        {
          "name": "_spender",
          "type": "address"
        }
      ],
      "name": "allowance",
      "outputs": [
        {
          "name": "remaining",
          "type": "uint256"
        }
      ],
      "payable": false,
      "stateMutability": "view",
      "type": "function"
    },
    {
      "constant": false,
      "inputs": [
        {
          "name": "_spender",
          "type": "address"
        },
        {
          "name": "_addedValue",
          "type": "uint256"
        }
      ],
      "name": "increaseApproval",
      "outputs": [
        {
          "name": "success",
          "type": "bool"
        }
      ],
      "payable": false,
      "stateMutability": "nonpayable",
      "type": "function"
    },
    {
      "constant": false,
      "inputs": [
        {
          "name": "_spender",
          "type": "address"
        },
        {
          "name": "_subtractedValue",
          "type": "uint256"
        }
      ],
      "name": "decreaseApproval",
      "outputs": [
        {
          "name": "success",
          "type": "bool"
        }
      ],
      "payable": false,
      "stateMutability": "nonpayable",
      "type": "function"
    }
  ],
  "bytecode": "0x608060405234801561001057600080fd5b5061082f806100206000396000f3fe608060405234801561001057600080fd5b50600436106100a95760003560e01c80636618846311610071578063661884631461019257806370a08231146101be578063a9059cbb146101e4578063d73dd62314610210578063d88c9af91461023c578063dd62ed3e14610260576100a9565b8063095ea7b3146100ae57806318160ddd146100ee57806323b872dd1461010857806327e235e31461013e5780635c65816514610164575b600080fd5b6100da600480360360408110156100c457600080fd5b506001600160a01b03813516906020013561028e565b604080519115158252519081900360200190f35b6100f66102f5565b60408051918252519081900360200190f35b6100da6004803603606081101561011e57600080fd5b506001600160a01b038135811691602081013590911690604001356102fb565b6100f66004803603602081101561015457600080fd5b50356001600160a01b031661045a565b6100f66004803603604081101561017a57600080fd5b506001600160a01b038135811691602001351661046c565b6100da600480360360408110156101a857600080fd5b506001600160a01b038135169060200135610489565b6100f6600480360360208110156101d457600080fd5b50356001600160a01b0316610579565b6100da600480360360408110156101fa57600080fd5b506001600160a01b038135169060200135610594565b6100da6004803603604081101561022657600080fd5b506001600160a01b038135169060200135610679565b610244610712565b604080516001600160a01b039092168252519081900360200190f35b6100f66004803603604081101561027657600080fd5b506001600160a01b038135811691602001351661071b565b3360008181526002602090815260408083206001600160a01b038716808552908352818420869055815186815291519394909390927f8c5be1e5ebec7d5bd14f71427d1e84f3dd0314c0f7b2291e5b200ac8c7c3b925928290030190a35060015b92915050565b60005481565b6001600160a01b038316600090815260016020526040812054821180159061034657506001600160a01b03841660009081526002602090815260408083203384529091529020548211155b1561044f576001600160a01b038316600090815260016020526040902054610374908363ffffffff61074616565b6001600160a01b0380851660009081526001602052604080822093909355908616815220546103a9908363ffffffff6107a316565b6001600160a01b03851660009081526001602090815260408083209390935560028152828220338352905220546103e6908363ffffffff6107a316565b6001600160a01b03808616600081815260026020908152604080832033845282529182902094909455805186815290519287169391927fddf252ad1be2c89b69c2b068fc378daa952ba7f163c4a11628f55a4df523b3ef929181900390910190a3506001610453565b5060005b9392505050565b60016020526000908152604090205481565b600260209081526000928352604080842090915290825290205481565b3360009081526002602090815260408083206001600160a01b0386168452909152812054808311156104de573360009081526002602090815260408083206001600160a01b0388168452909152812055610513565b6104ee818463ffffffff6107a316565b3360009081526002602090815260408083206001600160a01b03891684529091529020555b3360008181526002602090815260408083206001600160a01b0389168085529083529281902054815190815290519293927f8c5be1e5ebec7d5bd14f71427d1e84f3dd0314c0f7b2291e5b200ac8c7c3b925929181900390910190a35060019392505050565b6001600160a01b031660009081526001602052604090205490565b60006001600160a01b0383166466616c736514156105b4575060006102ef565b3360009081526001602052604090205482116102ef57336000908152600160205260409020546105ea908363ffffffff6107a316565b33600090815260016020526040808220929092556001600160a01b0385168152205461061c908363ffffffff61074616565b6001600160a01b0384166000818152600160209081526040918290209390935580518581529051919233927fddf252ad1be2c89b69c2b068fc378daa952ba7f163c4a11628f55a4df523b3ef9281900390910190a35060016102ef565b3360009081526002602090815260408083206001600160a01b03861684529091528120546106ad908363ffffffff61074616565b3360008181526002602090815260408083206001600160a01b0389168085529083529281902085905580519485525191937f8c5be1e5ebec7d5bd14f71427d1e84f3dd0314c0f7b2291e5b200ac8c7c3b925929081900390910190a350600192915050565b6466616c736581565b6001600160a01b03918216600090815260026020908152604080832093909416825291909152205490565b6000828201838110156104535760408051600160e51b62461bcd02815260206004820152600c60248201527f416464206f766572666c6f770000000000000000000000000000000000000000604482015290519081900360640190fd5b6000818310156107fd5760408051600160e51b62461bcd02815260206004820152600d60248201527f53756220756e646572666c6f7700000000000000000000000000000000000000604482015290519081900360640190fd5b5090039056fea165627a7a72305820d6594308b3da3ba65f7bb0e0bde64107c61f4c4408deb2fd498da203cf7e74040029",
  "source": "pragma solidity ^0.5.6;\n\nimport \"./../../interfaces/IERC20.sol\";\n\n\nlibrary SafeMath {\n    function add(uint256 x, uint256 y) internal pure returns (uint256) {\n        uint256 z = x + y;\n        require(z >= x, \"Add overflow\");\n        return z;\n    }\n\n    function sub(uint256 x, uint256 y) internal pure returns (uint256) {\n        require(x >= y, \"Sub underflow\");\n        return x - y;\n    }\n\n    function mult(uint256 x, uint256 y) internal pure returns (uint256) {\n        uint256 z = x * y;\n        require((x == 0)||(z/x == y), \"Mult overflow\");\n        return z;\n    }\n}\n\n\ncontract StandardERC20 is IERC20 {\n    using SafeMath for uint256;\n    address public constant RETURN_FALSE_ADDRESS = address(0x0000000000000000000000000000000066616c7365);\n\n    uint256 public totalSupply;\n    event Transfer(address indexed _from, address indexed _to, uint256 _value);\n    event Approval(address indexed _owner, address indexed _spender, uint256 _value);\n\n    function transfer(address _to, uint256 _value) public returns (bool) {\n        if (_to == RETURN_FALSE_ADDRESS)\n            return false;\n\n        if (balances[msg.sender] >= _value) {\n            balances[msg.sender] = balances[msg.sender].sub(_value);\n            balances[_to] = balances[_to].add(_value);\n            emit Transfer(msg.sender, _to, _value);\n            return true;\n        }\n    }\n\n    function transferFrom(address _from, address _to, uint256 _value) public returns (bool success) {\n        if (balances[_from] >= _value && allowed[_from][msg.sender] >= _value) {\n            balances[_to] = balances[_to].add(_value);\n            balances[_from] = balances[_from].sub(_value);\n            allowed[_from][msg.sender] = allowed[_from][msg.sender].sub(_value);\n            emit Transfer(_from, _to, _value);\n            return true;\n        } else {\n            return false;\n        }\n    }\n\n    function balanceOf(address _owner) public view returns (uint256 balance) {\n        return balances[_owner];\n    }\n\n    function approve(address _spender, uint256 _value) public returns (bool success) {\n        allowed[msg.sender][_spender] = _value;\n        emit Approval(msg.sender, _spender, _value);\n        return true;\n    }\n\n    function allowance(address _owner, address _spender) public view returns (uint256 remaining) {\n        return allowed[_owner][_spender];\n    }\n\n    function increaseApproval (address _spender, uint _addedValue) public returns (bool success) {\n        allowed[msg.sender][_spender] = allowed[msg.sender][_spender].add(_addedValue);\n        emit Approval(msg.sender, _spender, allowed[msg.sender][_spender]);\n        return true;\n    }\n\n    function decreaseApproval (address _spender, uint _subtractedValue) public returns (bool success) {\n        uint oldValue = allowed[msg.sender][_spender];\n        if (_subtractedValue > oldValue) {\n            allowed[msg.sender][_spender] = 0;\n        } else {\n            allowed[msg.sender][_spender] = oldValue.sub(_subtractedValue);\n        }\n        emit Approval(msg.sender, _spender, allowed[msg.sender][_spender]);\n        return true;\n    }\n\n    mapping (address => uint256) public balances;\n    mapping (address => mapping (address => uint256)) public allowed;\n}\n\n\ncontract TestERC20 is StandardERC20 {\n    event Mint(address indexed to, uint256 amount);\n    event Destroy(address indexed from, uint256 amount);\n\n    uint256 public constant PRICE = 4000;\n\n    // metadata\n    string public constant name = \"Infinite Test ERC20\";\n    string public constant symbol = \"TEST\";\n    uint8 public constant decimals = 18;\n    string public version = \"1.1\";\n\n    event CreatedERC20(address _address);\n    event SetBalance(address _address, uint256 _balance);\n\n    constructor () public {\n        emit CreatedERC20(address(this));\n    }\n\n    function () external payable {\n        buyTokens(msg.sender);\n    }\n\n    function buyTokens(address beneficiary) public payable {\n        uint256 tokens = msg.value.mult(PRICE);\n        balances[beneficiary] = tokens.add(balances[beneficiary]);\n        emit Transfer(address(0), beneficiary, tokens);\n        emit Mint(beneficiary, tokens);\n        totalSupply = totalSupply.add(tokens);\n        msg.sender.transfer(msg.value);\n    }\n\n    function setBalance(address _address, uint256 _balance) external {\n        uint256 prevBalance = balances[_address];\n        emit SetBalance(_address, _balance);\n        if (_balance > prevBalance) {\n            // Mint tokens\n            uint256 toAdd = _balance.sub(prevBalance);\n            emit Transfer(address(0), _address, toAdd);\n            emit Mint(_address, toAdd);\n            totalSupply = totalSupply.add(toAdd);\n            balances[_address] = prevBalance.add(toAdd);\n        } else if (_balance < prevBalance) {\n            // Destroy tokens\n            uint256 toDestroy = prevBalance.sub(_balance);\n            emit Transfer(_address, address(0), toDestroy);\n            emit Destroy(_address, toDestroy);\n            totalSupply = totalSupply.sub(toDestroy);\n            balances[_address] = prevBalance.sub(toDestroy);\n        }\n    }\n}\n",
  "sourcePath": "/home/rcn-d1/workspace/eth-gambling-api/contracts/utils/test/TestERC20.sol",
  "compiler": {
    "name": "solc",
    "version": "0.5.6+commit.b259423e.Emscripten.clang"
  },
  "schemaVersion": "3.0.11",
  "updatedAt": "2019-06-30T01:08:29.593Z",
  "devdoc": {
    "methods": {}
  },
  "userdoc": {
    "methods": {}
  }
}