{
  "contractName": "TestERC721ReceiverMultiple",
  "abi": [
    {
      "constant": true,
      "inputs": [],
      "name": "lastData",
      "outputs": [
        {
          "name": "",
          "type": "bytes"
        }
      ],
      "payable": false,
      "stateMutability": "view",
      "type": "function"
    },
    {
      "constant": true,
      "inputs": [],
      "name": "lastOperator",
      "outputs": [
        {
          "name": "",
          "type": "address"
        }
      ],
      "payable": false,
      "stateMutability": "view",
      "type": "function"
    },
    {
      "constant": true,
      "inputs": [],
      "name": "lastFrom",
      "outputs": [
        {
          "name": "",
          "type": "address"
        }
      ],
      "payable": false,
      "stateMutability": "view",
      "type": "function"
    },
    {
      "constant": true,
      "inputs": [],
      "name": "methodCalled",
      "outputs": [
        {
          "name": "",
          "type": "uint256"
        }
      ],
      "payable": false,
      "stateMutability": "view",
      "type": "function"
    },
    {
      "constant": true,
      "inputs": [],
      "name": "lastTokenId",
      "outputs": [
        {
          "name": "",
          "type": "uint256"
        }
      ],
      "payable": false,
      "stateMutability": "view",
      "type": "function"
    },
    {
      "anonymous": false,
      "inputs": [
        {
          "indexed": false,
          "name": "_operator",
          "type": "address"
        },
        {
          "indexed": false,
          "name": "_from",
          "type": "address"
        },
        {
          "indexed": false,
          "name": "_id",
          "type": "uint256"
        },
        {
          "indexed": false,
          "name": "_data",
          "type": "bytes"
        }
      ],
      "name": "Received",
      "type": "event"
    },
    {
      "constant": false,
      "inputs": [
        {
          "name": "_operator",
          "type": "address"
        },
        {
          "name": "_from",
          "type": "address"
        },
        {
          "name": "_tokenId",
          "type": "uint256"
        },
        {
          "name": "_userData",
          "type": "bytes"
        }
      ],
      "name": "onERC721Received",
      "outputs": [
        {
          "name": "",
          "type": "bytes4"
        }
      ],
      "payable": false,
      "stateMutability": "nonpayable",
      "type": "function"
    },
    {
      "constant": false,
      "inputs": [
        {
          "name": "_from",
          "type": "address"
        },
        {
          "name": "_tokenId",
          "type": "uint256"
        },
        {
          "name": "_userData",
          "type": "bytes"
        }
      ],
      "name": "onERC721Received",
      "outputs": [
        {
          "name": "",
          "type": "bytes4"
        }
      ],
      "payable": false,
      "stateMutability": "nonpayable",
      "type": "function"
    }
  ],
  "bytecode": "0x608060405234801561001057600080fd5b5061053e806100206000396000f3fe608060405234801561001057600080fd5b506004361061007c5760003560e01c8063804433781161005b57806380443378146101cf578063dc43e5ca146101d7578063f0b9e5ba146101f1578063f84ddf0b146102765761007c565b80626e75ec14610081578063150b7a02146100fe5780636eb3cd49146101ab575b600080fd5b61008961027e565b6040805160208082528351818301528351919283929083019185019080838360005b838110156100c35781810151838201526020016100ab565b50505050905090810190601f1680156100f05780820380516001836020036101000a031916815260200191505b509250505060405180910390f35b61018e6004803603608081101561011457600080fd5b6001600160a01b0382358116926020810135909116916040820135919081019060808101606082013564010000000081111561014f57600080fd5b82018360208201111561016157600080fd5b8035906020019184600183028401116401000000008311171561018357600080fd5b50909250905061030c565b604080516001600160e01b03199092168252519081900360200190f35b6101b3610405565b604080516001600160a01b039092168252519081900360200190f35b6101b3610414565b6101df610423565b60408051918252519081900360200190f35b61018e6004803603606081101561020757600080fd5b6001600160a01b038235169160208101359181019060608101604082013564010000000081111561023757600080fd5b82018360208201111561024957600080fd5b8035906020019184600183028401116401000000008311171561026b57600080fd5b509092509050610429565b6101df610471565b6004805460408051602060026001851615610100026000190190941693909304601f810184900484028201840190925281815292918301828280156103045780601f106102d957610100808354040283529160200191610304565b820191906000526020600020905b8154815290600101906020018083116102e757829003601f168201915b505050505081565b60007ed9411ae77b2bacabe5cbe62a2abdbeb78992a0182c6f3c83e0029c7615d6b6868686868660405180866001600160a01b03166001600160a01b03168152602001856001600160a01b03166001600160a01b03168152602001848152602001806020018281038252848482818152602001925080828437600083820152604051601f909101601f19169092018290039850909650505050505050a1600080546001600160a01b038089166001600160a01b031992831617909255600180549288169290911691909117905560028490556103ea60048484610477565b50506002600355600160e11b630a85bd010295945050505050565b6000546001600160a01b031681565b6001546001600160a01b031681565b60035481565b600180546001600160a01b0319166001600160a01b0386161790556002839055600061045760048484610477565b50506001600355600160e11b63785cf2dd02949350505050565b60025481565b828054600181600116156101000203166002900490600052602060002090601f016020900481019282601f106104b85782800160ff198235161785556104e5565b828001600101855582156104e5579182015b828111156104e55782358255916020019190600101906104ca565b506104f19291506104f5565b5090565b61050f91905b808211156104f157600081556001016104fb565b9056fea165627a7a723058202b041f6353c844de0504e165d00a618539b7a95fd747cf5beb35f023110bd8d80029",
  "source": "pragma solidity ^0.5.6;\n\nimport \"./../../../interfaces/IERC721Receiver.sol\";\nimport \"./../../../interfaces/IERC721ReceiverLegacy.sol\";\n\n\ncontract TestERC721ReceiverMultiple is IERC721Receiver, IERC721ReceiverLegacy {\n    address public lastOperator;\n    address public lastFrom;\n    uint256 public lastTokenId;\n    uint256 public methodCalled;\n    bytes public lastData;\n\n    event Received(address _operator, address _from, uint256 _id, bytes _data);\n\n    function onERC721Received(\n        address _operator,\n        address _from,\n        uint256 _tokenId,\n        bytes calldata _userData\n    ) external returns (bytes4) {\n        emit Received(_operator, _from, _tokenId, _userData);\n        lastOperator = _operator;\n        lastFrom = _from;\n        lastTokenId = _tokenId;\n        lastData = _userData;\n        methodCalled = 2;\n        return bytes4(0x150b7a02);\n    }\n\n    function onERC721Received(\n        address _from,\n        uint256 _tokenId,\n        bytes calldata _userData\n    ) external returns (bytes4) {\n        lastFrom = _from;\n        lastTokenId = _tokenId;\n        lastData = _userData;\n        methodCalled = 1;\n        return bytes4(0xf0b9e5ba);\n    }\n}\n",
  "sourcePath": "/home/rcn-d1/workspace/eth-gambling-api/contracts/utils/test/ERC721Base/TestERC721ReceiverMultiple.sol",
  "compiler": {
    "name": "solc",
    "version": "0.5.6+commit.b259423e.Emscripten.clang"
  },
  "schemaVersion": "3.0.11",
  "updatedAt": "2019-06-30T01:08:29.586Z",
  "devdoc": {
    "methods": {}
  },
  "userdoc": {
    "methods": {}
  }
}