{
  "contractName": "TestURIProvider",
  "abi": [
    {
      "constant": true,
      "inputs": [
        {
          "name": "interfaceId",
          "type": "bytes4"
        }
      ],
      "name": "supportsInterface",
      "outputs": [
        {
          "name": "",
          "type": "bool"
        }
      ],
      "payable": false,
      "stateMutability": "view",
      "type": "function"
    },
    {
      "constant": true,
      "inputs": [],
      "name": "name",
      "outputs": [
        {
          "name": "",
          "type": "string"
        }
      ],
      "payable": false,
      "stateMutability": "view",
      "type": "function"
    },
    {
      "constant": true,
      "inputs": [
        {
          "name": "_erc721Id",
          "type": "uint256"
        }
      ],
      "name": "getApproved",
      "outputs": [
        {
          "name": "",
          "type": "address"
        }
      ],
      "payable": false,
      "stateMutability": "view",
      "type": "function"
    },
    {
      "constant": false,
      "inputs": [
        {
          "name": "_operator",
          "type": "address"
        },
        {
          "name": "_assetId",
          "type": "uint256"
        }
      ],
      "name": "approve",
      "outputs": [],
      "payable": false,
      "stateMutability": "nonpayable",
      "type": "function"
    },
    {
      "constant": true,
      "inputs": [],
      "name": "totalSupply",
      "outputs": [
        {
          "name": "",
          "type": "uint256"
        }
      ],
      "payable": false,
      "stateMutability": "view",
      "type": "function"
    },
    {
      "constant": false,
      "inputs": [
        {
          "name": "_from",
          "type": "address"
        },
        {
          "name": "_to",
          "type": "address"
        },
        {
          "name": "_assetId",
          "type": "uint256"
        }
      ],
      "name": "transferFrom",
      "outputs": [],
      "payable": false,
      "stateMutability": "nonpayable",
      "type": "function"
    },
    {
      "constant": true,
      "inputs": [
        {
          "name": "_operator",
          "type": "address"
        },
        {
          "name": "_assetId",
          "type": "uint256"
        }
      ],
      "name": "isAuthorized",
      "outputs": [
        {
          "name": "",
          "type": "bool"
        }
      ],
      "payable": false,
      "stateMutability": "view",
      "type": "function"
    },
    {
      "constant": true,
      "inputs": [
        {
          "name": "_owner",
          "type": "address"
        }
      ],
      "name": "assetsOf",
      "outputs": [
        {
          "name": "",
          "type": "uint256[]"
        }
      ],
      "payable": false,
      "stateMutability": "view",
      "type": "function"
    },
    {
      "constant": false,
      "inputs": [
        {
          "name": "_from",
          "type": "address"
        },
        {
          "name": "_to",
          "type": "address"
        },
        {
          "name": "_assetId",
          "type": "uint256"
        }
      ],
      "name": "safeTransferFrom",
      "outputs": [],
      "payable": false,
      "stateMutability": "nonpayable",
      "type": "function"
    },
    {
      "constant": true,
      "inputs": [],
      "name": "assetId",
      "outputs": [
        {
          "name": "",
          "type": "uint256"
        }
      ],
      "payable": false,
      "stateMutability": "view",
      "type": "function"
    },
    {
      "constant": true,
      "inputs": [
        {
          "name": "_index",
          "type": "uint256"
        }
      ],
      "name": "erc721ByIndex",
      "outputs": [
        {
          "name": "",
          "type": "uint256"
        }
      ],
      "payable": false,
      "stateMutability": "view",
      "type": "function"
    },
    {
      "constant": true,
      "inputs": [
        {
          "name": "",
          "type": "address"
        },
        {
          "name": "",
          "type": "uint256"
        }
      ],
      "name": "allAssetsOf",
      "outputs": [
        {
          "name": "",
          "type": "uint256"
        }
      ],
      "payable": false,
      "stateMutability": "view",
      "type": "function"
    },
    {
      "constant": true,
      "inputs": [
        {
          "name": "_erc721Id",
          "type": "uint256"
        }
      ],
      "name": "ownerOf",
      "outputs": [
        {
          "name": "",
          "type": "address"
        }
      ],
      "payable": false,
      "stateMutability": "view",
      "type": "function"
    },
    {
      "constant": true,
      "inputs": [
        {
          "name": "_owner",
          "type": "address"
        }
      ],
      "name": "balanceOf",
      "outputs": [
        {
          "name": "",
          "type": "uint256"
        }
      ],
      "payable": false,
      "stateMutability": "view",
      "type": "function"
    },
    {
      "constant": true,
      "inputs": [
        {
          "name": "",
          "type": "uint256"
        }
      ],
      "name": "indexOfAsset",
      "outputs": [
        {
          "name": "",
          "type": "uint256"
        }
      ],
      "payable": false,
      "stateMutability": "view",
      "type": "function"
    },
    {
      "constant": true,
      "inputs": [],
      "name": "allErc721Ids",
      "outputs": [
        {
          "name": "",
          "type": "uint256[]"
        }
      ],
      "payable": false,
      "stateMutability": "view",
      "type": "function"
    },
    {
      "constant": true,
      "inputs": [
        {
          "name": "",
          "type": "uint256"
        }
      ],
      "name": "erc721Ids",
      "outputs": [
        {
          "name": "",
          "type": "uint256"
        }
      ],
      "payable": false,
      "stateMutability": "view",
      "type": "function"
    },
    {
      "constant": true,
      "inputs": [
        {
          "name": "_owner",
          "type": "address"
        },
        {
          "name": "_index",
          "type": "uint256"
        }
      ],
      "name": "erc721OfOwnerByIndex",
      "outputs": [
        {
          "name": "",
          "type": "uint256"
        }
      ],
      "payable": false,
      "stateMutability": "view",
      "type": "function"
    },
    {
      "constant": true,
      "inputs": [],
      "name": "symbol",
      "outputs": [
        {
          "name": "",
          "type": "string"
        }
      ],
      "payable": false,
      "stateMutability": "view",
      "type": "function"
    },
    {
      "constant": false,
      "inputs": [
        {
          "name": "_operator",
          "type": "address"
        },
        {
          "name": "_authorized",
          "type": "bool"
        }
      ],
      "name": "setApprovalForAll",
      "outputs": [],
      "payable": false,
      "stateMutability": "nonpayable",
      "type": "function"
    },
    {
      "constant": false,
      "inputs": [
        {
          "name": "_from",
          "type": "address"
        },
        {
          "name": "_to",
          "type": "address"
        },
        {
          "name": "_assetId",
          "type": "uint256"
        },
        {
          "name": "_userData",
          "type": "bytes"
        }
      ],
      "name": "safeTransferFrom",
      "outputs": [],
      "payable": false,
      "stateMutability": "nonpayable",
      "type": "function"
    },
    {
      "constant": true,
      "inputs": [
        {
          "name": "_operator",
          "type": "address"
        },
        {
          "name": "_owner",
          "type": "address"
        }
      ],
      "name": "isApprovedForAll",
      "outputs": [
        {
          "name": "",
          "type": "bool"
        }
      ],
      "payable": false,
      "stateMutability": "view",
      "type": "function"
    },
    {
      "constant": true,
      "inputs": [],
      "name": "uri",
      "outputs": [
        {
          "name": "",
          "type": "string"
        }
      ],
      "payable": false,
      "stateMutability": "view",
      "type": "function"
    },
    {
      "inputs": [],
      "payable": false,
      "stateMutability": "nonpayable",
      "type": "constructor"
    },
    {
      "anonymous": false,
      "inputs": [
        {
          "indexed": false,
          "name": "_uriProvider",
          "type": "address"
        }
      ],
      "name": "SetURIProvider",
      "type": "event"
    },
    {
      "anonymous": false,
      "inputs": [
        {
          "indexed": true,
          "name": "_from",
          "type": "address"
        },
        {
          "indexed": true,
          "name": "_to",
          "type": "address"
        },
        {
          "indexed": false,
          "name": "_tokenId",
          "type": "uint256"
        }
      ],
      "name": "Transfer",
      "type": "event"
    },
    {
      "anonymous": false,
      "inputs": [
        {
          "indexed": true,
          "name": "_owner",
          "type": "address"
        },
        {
          "indexed": true,
          "name": "_approved",
          "type": "address"
        },
        {
          "indexed": false,
          "name": "_tokenId",
          "type": "uint256"
        }
      ],
      "name": "Approval",
      "type": "event"
    },
    {
      "anonymous": false,
      "inputs": [
        {
          "indexed": true,
          "name": "_owner",
          "type": "address"
        },
        {
          "indexed": true,
          "name": "_operator",
          "type": "address"
        },
        {
          "indexed": false,
          "name": "_approved",
          "type": "bool"
        }
      ],
      "name": "ApprovalForAll",
      "type": "event"
    },
    {
      "constant": false,
      "inputs": [
        {
          "name": "id",
          "type": "uint256"
        },
        {
          "name": "dest",
          "type": "address"
        }
      ],
      "name": "generate",
      "outputs": [],
      "payable": false,
      "stateMutability": "nonpayable",
      "type": "function"
    },
    {
      "constant": true,
      "inputs": [
        {
          "name": "",
          "type": "uint256"
        }
      ],
      "name": "tokenURI",
      "outputs": [
        {
          "name": "",
          "type": "string"
        }
      ],
      "payable": false,
      "stateMutability": "view",
      "type": "function"
    },
    {
      "constant": false,
      "inputs": [
        {
          "name": "_provider",
          "type": "address"
        }
      ],
      "name": "setURIProvider",
      "outputs": [],
      "payable": false,
      "stateMutability": "nonpayable",
      "type": "function"
    }
  ],
  "bytecode": "0x60e06040526021608081815290620019fb60a03980516200002991600a9160209091019062000207565b503480156200003757600080fd5b506040518060400160405280600b81526020017f54657374204552433732310000000000000000000000000000000000000000008152506040518060400160405280600381526020017f5453540000000000000000000000000000000000000000000000000000000000815250620000bc6301ffc9a760e01b6200013860201b60201c565b8151620000d190600790602085019062000207565b508051620000e790600890602084019062000207565b50620001006380ac58cd60e01b6200013860201b60201c565b62000118635b5e139f60e01b6200013860201b60201c565b6200013063780e9d6360e01b6200013860201b60201c565b5050620002ac565b7fffffffff000000000000000000000000000000000000000000000000000000008082161415620001ca57604080517f08c379a000000000000000000000000000000000000000000000000000000000815260206004820152601960248201527f43616e2774207265676973746572203078666666666666666600000000000000604482015290519081900360640190fd5b7fffffffff00000000000000000000000000000000000000000000000000000000166000908152602081905260409020805460ff19166001179055565b828054600181600116156101000203166002900490600052602060002090601f016020900481019282601f106200024a57805160ff19168380011785556200027a565b828001600101855582156200027a579182015b828111156200027a5782518255916020019190600101906200025d565b50620002889291506200028c565b5090565b620002a991905b8082111562000288576000815560010162000293565b90565b61173f80620002bc6000396000f3fe608060405234801561001057600080fd5b506004361061018e5760003560e01c806370a08231116100de57806395d89b4111610097578063c87b56dd11610071578063c87b56dd146105ce578063db2c5518146105eb578063e985e9c514610611578063eac989f81461063f5761018e565b806395d89b4114610508578063a22cb46514610510578063b88d4fde1461053e5761018e565b806370a08231146104485780637579de8f1461046e578063835977311461049a57806385c1b75f146104b7578063902944d6146104bf5780639435237a146104dc5761018e565b80632972b0f01161014b57806344de240a1161012557806344de240a146103da5780634ad6d366146103e257806353298b7f146103ff5780636352211e1461042b5761018e565b80632972b0f0146103025780632c62fa101461032e57806342842e0e146103a45761018e565b806301ffc9a71461019357806306fdde03146101ce578063081812fc1461024b578063095ea7b31461028457806318160ddd146102b257806323b872dd146102cc575b600080fd5b6101ba600480360360208110156101a957600080fd5b50356001600160e01b031916610647565b604080519115158252519081900360200190f35b6101d6610666565b6040805160208082528351818301528351919283929083019185019080838360005b838110156102105781810151838201526020016101f8565b50505050905090810190601f16801561023d5780820380516001836020036101000a031916815260200191505b509250505060405180910390f35b6102686004803603602081101561026157600080fd5b50356106fd565b604080516001600160a01b039092168252519081900360200190f35b6102b06004803603604081101561029a57600080fd5b506001600160a01b038135169060200135610718565b005b6102ba610840565b60408051918252519081900360200190f35b6102b0600480360360608110156102e257600080fd5b506001600160a01b03813581169160208101359091169060400135610846565b6101ba6004803603604081101561031857600080fd5b506001600160a01b038135169060200135610863565b6103546004803603602081101561034457600080fd5b50356001600160a01b03166108de565b60408051602080825283518183015283519192839290830191858101910280838360005b83811015610390578181015183820152602001610378565b505050509050019250505060405180910390f35b6102b0600480360360608110156103ba57600080fd5b506001600160a01b0381358116916020810135909116906040013561094a565b6102ba610967565b6102ba600480360360208110156103f857600080fd5b503561096d565b6102ba6004803603604081101561041557600080fd5b506001600160a01b0381351690602001356109e8565b6102686004803603602081101561044157600080fd5b5035610a16565b6102ba6004803603602081101561045e57600080fd5b50356001600160a01b0316610a31565b6102b06004803603604081101561048457600080fd5b50803590602001356001600160a01b0316610a4c565b6102ba600480360360208110156104b057600080fd5b5035610a5c565b610354610a6e565b6102ba600480360360208110156104d557600080fd5b5035610ac5565b6102ba600480360360408110156104f257600080fd5b506001600160a01b038135169060200135610ae3565b6101d6610b89565b6102b06004803603604081101561052657600080fd5b506001600160a01b0381351690602001351515610bea565b6102b06004803603608081101561055457600080fd5b6001600160a01b0382358116926020810135909116916040820135919081019060808101606082013564010000000081111561058f57600080fd5b8201836020820111156105a157600080fd5b803590602001918460018302840111640100000000831117156105c357600080fd5b509092509050610c8a565b6101d6600480360360208110156105e457600080fd5b5035610cd6565b6102b06004803603602081101561060157600080fd5b50356001600160a01b0316610d64565b6101ba6004803603604081101561062757600080fd5b506001600160a01b0381358116916020013516610d70565b6101d6610d9f565b6001600160e01b03191660009081526020819052604090205460ff1690565b60078054604080516020601f60026000196101006001881615020190951694909404938401819004810282018101909252828152606093909290918301828280156106f25780601f106106c7576101008083540402835291602001916106f2565b820191906000526020600020905b8154815290600101906020018083116106d557829003601f168201915b505050505090505b90565b6000908152600460205260409020546001600160a01b031690565b6000818152600160205260409020546001600160a01b03163381148061076157506001600160a01b038116600090815260036020908152604080832033845290915290205460ff165b6107b55760408051600160e51b62461bcd02815260206004820152601860248201527f6d73672e73656e6465722063616e277420617070726f76650000000000000000604482015290519081900360640190fd5b6000828152600460205260409020546001600160a01b0384811691161461083b5760008281526004602090815260409182902080546001600160a01b0319166001600160a01b03878116918217909255835186815293519093918516927f8c5be1e5ebec7d5bd14f71427d1e84f3dd0314c0f7b2291e5b200ac8c7c3b925928290030190a35b505050565b60065490565b61083b838383604051806020016040528060008152506000610e2d565b6000818152600160205260408120546001600160a01b039081169084168114806108a657506000838152600460205260409020546001600160a01b038581169116145b806108d657506001600160a01b0380821660009081526003602090815260408083209388168352929052205460ff165b949350505050565b6001600160a01b03811660009081526002602090815260409182902080548351818402810184019094528084526060939283018282801561093e57602002820191906000526020600020905b81548152602001906001019080831161092a575b50505050509050919050565b61083b838383604051806020016040528060008152506001610e2d565b600b5481565b60065460009082106109c95760408051600160e51b62461bcd02815260206004820152601360248201527f496e646578206f7574206f6620626f756e647300000000000000000000000000604482015290519081900360640190fd5b600682815481106109d657fe5b90600052602060002001549050919050565b60026020528160005260406000208181548110610a0157fe5b90600052602060002001600091509150505481565b6000908152600160205260409020546001600160a01b031690565b6001600160a01b031660009081526002602052604090205490565b610a568282611471565b50600b55565b60056020526000908152604090205481565b606060068054806020026020016040519081016040528092919081815260200182805480156106f257602002820191906000526020600020905b815481526020019060010190808311610aa8575050505050905090565b60068181548110610ad257fe5b600091825260209091200154905081565b6001600160a01b0382166000908152600260205260408120548210610b525760408051600160e51b62461bcd02815260206004820152601360248201527f496e646578206f7574206f6620626f756e647300000000000000000000000000604482015290519081900360640190fd5b6001600160a01b0383166000908152600260205260409020805483908110610b7657fe5b9060005260206000200154905092915050565b60088054604080516020601f60026000196101006001881615020190951694909404938401819004810282018101909252828152606093909290918301828280156106f25780601f106106c7576101008083540402835291602001916106f2565b3360009081526003602090815260408083206001600160a01b038616845290915290205460ff16151581151514610c86573360008181526003602090815260408083206001600160a01b03871680855290835292819020805460ff1916861515908117909155815190815290519293927f17307eab39ab6107e8899845ad3d59bd9653f200f220920489ca2b5937696c31929181900390910190a35b5050565b610ccf85858585858080601f01602080910402602001604051908101604052809392919081815260200183838082843760009201919091525060019250610e2d915050565b5050505050565b600a8054604080516020601f600260001961010060018816150201909516949094049384018190048102820181019092528281526060939092909183018282801561093e5780601f10610d375761010080835404028352916020019161093e565b820191906000526020600020905b815481529060010190602001808311610d455750939695505050505050565b610d6d8161159d565b50565b6001600160a01b0380821660009081526003602090815260408083209386168352929052205460ff1692915050565b600a805460408051602060026001851615610100026000190190941693909304601f81018490048402820184019092528181529291830182828015610e255780601f10610dfa57610100808354040283529160200191610e25565b820191906000526020600020905b815481529060010190602001808311610e0857829003601f168201915b505050505081565b6001600160a01b038416610e8b5760408051600160e51b62461bcd02815260206004820152601360248201527f5461726765742063616e27742062652030783000000000000000000000000000604482015290519081900360640190fd5b6000838152600160205260409020546001600160a01b031633811480610ec757506000848152600460205260409020546001600160a01b031633145b80610ef557506001600160a01b038116600090815260036020908152604080832033845290915290205460ff165b610f495760408051600160e51b62461bcd02815260206004820152601960248201527f6d73672e73656e646572204e6f7420617574686f72697a656400000000000000604482015290519081900360640190fd5b806001600160a01b0316866001600160a01b031614610fb25760408051600160e51b62461bcd02815260206004820152601160248201527f4e6f742063757272656e74206f776e6572000000000000000000000000000000604482015290519081900360640190fd5b6000848152600460205260409020546001600160a01b03161561102957600084815260046020908152604080832080546001600160a01b0319169055805187815290516001600160a01b038a16927f8c5be1e5ebec7d5bd14f71427d1e84f3dd0314c0f7b2291e5b200ac8c7c3b925928290030190a35b6000848152600560209081526040808320546001600160a01b038a168452600290925290912054600019018082146110dd576001600160a01b038816600090815260026020526040812080548390811061107f57fe5b9060005260206000200154905080600260008b6001600160a01b03166001600160a01b0316815260200190815260200160002084815481106110bd57fe5b600091825260208083209091019290925591825260059052604090208290555b6001600160a01b038816600090815260026020526040902080548290811061110157fe5b600091825260208083209091018290556001600160a01b038a16825260029052604090208054906111369060001983016116d6565b50600086815260016020818152604080842080546001600160a01b0319166001600160a01b038d1690811790915584526002825280842080549384018155845281842083018a90558984526005909152909120558380156111a457506111a4876001600160a01b03166115fb565b1561141c5760008061129e8963150b7a0260e01b338d8c8c60405160240180856001600160a01b03166001600160a01b03168152602001846001600160a01b03166001600160a01b0316815260200183815260200180602001828103825283818151815260200191508051906020019080838360005b8381101561123257818101518382015260200161121a565b50505050905090810190601f16801561125f5780820380516001836020036101000a031916815260200191505b5060408051601f198184030181529190526020810180516001600160e01b03166001600160e01b03199099169890981790975250611601945050505050565b915091508115806112c357506001600160e01b03198116600160e11b630a85bd010214155b15611419576113a08963f0b9e5ba60e01b8c8b8b60405160240180846001600160a01b03166001600160a01b0316815260200183815260200180602001828103825283818151815260200191508051906020019080838360005b8381101561133557818101518382015260200161131d565b50505050905090810190601f1680156113625780820380516001836020036101000a031916815260200191505b5060408051601f198184030181529190526020810180516001600160e01b03166001600160e01b031990981697909717909652506116019350505050565b90925090508180156113c557506001600160e01b03198116600160e11b63785cf2dd02145b6114195760408051600160e51b62461bcd02815260206004820152601b60248201527f436f6e74726163742072656a65637465642074686520746f6b656e0000000000604482015290519081900360640190fd5b50505b866001600160a01b0316886001600160a01b03167fddf252ad1be2c89b69c2b068fc378daa952ba7f163c4a11628f55a4df523b3ef886040518082815260200191505060405180910390a35050505050505050565b6000828152600160205260409020546001600160a01b0316156114de5760408051600160e51b62461bcd02815260206004820152601460248201527f417373657420616c726561647920657869737473000000000000000000000000604482015290519081900360640190fd5b600082815260016020818152604080842080546001600160a01b0319166001600160a01b03871690811790915580855260028352818520805480860182559086528386208101889055878652600584528286205560068054948501815585527ff652222313e28459528d920b65115c16c04f3efc82aaedc97be59f3f377c0d3f909301869055805186815290519293927fddf252ad1be2c89b69c2b068fc378daa952ba7f163c4a11628f55a4df523b3ef929181900390910190a35050565b604080516001600160a01b038316815290517f8830bfff0a198778822a37d97bfba3d9d6e08bcd080eb82f2a76f2060a7494ec9181900360200190a1600980546001600160a01b0319166001600160a01b0392909216919091179055565b3b151590565b6000806060846001600160a01b0316846040518082805190602001908083835b602083106116405780518252601f199092019160209182019101611621565b6001836020036101000a0380198251168184511680821785525050505050509050019150506000604051808303816000865af19150503d80600081146116a2576040519150601f19603f3d011682016040523d82523d6000602084013e6116a7565b606091505b5080519194509150156116ce578080602001905160208110156116c957600080fd5b505191505b509250929050565b81548183558181111561083b5760008381526020902061083b9181019083016106fa91905b8082111561170f57600081556001016116fb565b509056fea165627a7a723058202068f9a9fb488ed93fefad8b4433f7d5283cbe5b680836b8a978aaf2b96b6aa1002968747470733a2f2f726970696f4372656469744e6574776f726b2f646562744964",
  "source": "pragma solidity ^0.5.6;\n\nimport \"./../../ERC721Base.sol\";\n\n\ncontract TestURIProvider is ERC721Base {\n    string public uri = \"https://ripioCreditNetwork/debtId\";\n    uint256 public assetId;\n\n    constructor() public ERC721Base(\"Test ERC721\", \"TST\") {}\n\n    function generate(uint256 id, address dest) external {\n        _generate(id, dest);\n        assetId = id;\n    }\n\n    function tokenURI(uint256) external view returns (string memory){\n        return uri;\n    }\n\n    function setURIProvider(URIProvider _provider) external  {\n        _setURIProvider(_provider);\n    }\n}\n",
  "sourcePath": "/home/rcn-d1/workspace/eth-gambling-api/contracts/utils/test/ERC721Base/TestURIProvider.sol",
  "compiler": {
    "name": "solc",
    "version": "0.5.6+commit.b259423e.Emscripten.clang"
  },
  "schemaVersion": "3.0.11",
  "updatedAt": "2019-06-30T01:08:29.587Z",
  "devdoc": {
    "methods": {
      "approve(address,uint256)": {
        "details": "Authorize a third party operator to manage one particular asset",
        "params": {
          "_assetId": "asset to approve",
          "_operator": "address to be approved"
        }
      },
      "balanceOf(address)": {
        "details": "Gets the balance of the specified address",
        "params": {
          "_owner": "address to query the balance of"
        },
        "return": "uint256 representing the amount owned by the passed address"
      },
      "erc721ByIndex(uint256)": {
        "details": "Throws if `_index` >= `totalSupply()`.",
        "params": {
          "_index": "A counter less than `totalSupply()`"
        },
        "return": "The ERC721 identifier for the `_index` of the NFT, (sort order not specified)"
      },
      "erc721OfOwnerByIndex(address,uint256)": {
        "details": "Throws if `_index` >= `balanceOf(_owner)` or if `_owner` is the zero address, representing invalid NFTs.",
        "params": {
          "_index": "A counter less than `balanceOf(_owner)`",
          "_owner": "An address where we are interested in NFTs owned by them"
        },
        "return": "The ERC721 identifier for the `_index` of the NFT assigned to `_owner`,  (sort order not specified)"
      },
      "isApprovedForAll(address,address)": {
        "details": "Query whether an address has been authorized to move any assets on behalf of someone else",
        "params": {
          "_operator": "the address that might be authorized",
          "_owner": "the address that provided the authorization"
        },
        "return": "bool true if the operator has been authorized to move any assets"
      },
      "isAuthorized(address,uint256)": {
        "details": "Query if an operator can move an asset.",
        "params": {
          "_assetId": "the asset that has been `approved` for transfer",
          "_operator": "the address that might be authorized"
        },
        "return": "bool true if the asset has been approved by the owner"
      },
      "safeTransferFrom(address,address,uint256)": {
        "details": "Alias of `safeTransferFrom(from, to, assetId, '')`",
        "params": {
          "_assetId": "uint256 ID of the asset to be transferred",
          "_from": "address that currently owns an asset",
          "_to": "address to receive the ownership of the asset"
        }
      },
      "safeTransferFrom(address,address,uint256,bytes)": {
        "details": "Securely transfers the ownership of a given asset from one address to another address, calling the method `onNFTReceived` on the target address if there's code associated with it",
        "params": {
          "_assetId": "uint256 ID of the asset to be transferred",
          "_from": "address that currently owns an asset",
          "_to": "address to receive the ownership of the asset",
          "_userData": "bytes arbitrary user information to attach to this transfer"
        }
      },
      "setApprovalForAll(address,bool)": {
        "details": "Authorize a third party operator to manage (send) msg.sender's asset",
        "params": {
          "_authorized": "bool set to true to authorize, false to withdraw authorization",
          "_operator": "address to be approved"
        }
      },
      "supportsInterface(bytes4)": {
        "details": "implement supportsInterface(bytes4) using a lookup table"
      },
      "totalSupply()": {
        "details": "Gets the total amount of assets stored by the contract",
        "return": "uint256 representing the total amount of assets"
      },
      "transferFrom(address,address,uint256)": {
        "details": "Transfers the ownership of a given asset from one address to another address Warning! This function does not attempt to verify that the target address can send erc721Ids.",
        "params": {
          "_assetId": "uint256 ID of the asset to be transferred",
          "_from": "address sending the asset",
          "_to": "address to receive the ownership of the asset"
        }
      }
    }
  },
  "userdoc": {
    "methods": {
      "erc721ByIndex(uint256)": {
        "notice": "Enumerate valid NFTs"
      },
      "erc721OfOwnerByIndex(address,uint256)": {
        "notice": "Enumerate NFTs assigned to an owner"
      }
    }
  }
}