{
  "contractName": "TestOracle",
  "abi": [
    {
      "constant": true,
      "inputs": [],
      "name": "TRUE",
      "outputs": [
        {
          "name": "",
          "type": "bytes32"
        }
      ],
      "payable": false,
      "stateMutability": "view",
      "type": "function"
    },
    {
      "constant": true,
      "inputs": [
        {
          "name": "",
          "type": "bytes32"
        },
        {
          "name": "_data",
          "type": "bytes"
        }
      ],
      "name": "validateCreate",
      "outputs": [
        {
          "name": "",
          "type": "bool"
        }
      ],
      "payable": false,
      "stateMutability": "view",
      "type": "function"
    },
    {
      "constant": true,
      "inputs": [
        {
          "name": "",
          "type": "bytes32"
        },
        {
          "name": "",
          "type": "bytes32"
        },
        {
          "name": "_data",
          "type": "bytes"
        }
      ],
      "name": "validatePlay",
      "outputs": [
        {
          "name": "",
          "type": "bool"
        }
      ],
      "payable": false,
      "stateMutability": "view",
      "type": "function"
    },
    {
      "constant": true,
      "inputs": [
        {
          "name": "_eventId",
          "type": "bytes32"
        }
      ],
      "name": "whoWon",
      "outputs": [
        {
          "name": "",
          "type": "bytes32"
        }
      ],
      "payable": false,
      "stateMutability": "view",
      "type": "function"
    }
  ],
  "bytecode": "0x608060405234801561001057600080fd5b50610299806100206000396000f3fe608060405234801561001057600080fd5b506004361061004c5760003560e01c8063455ed8df146100515780635994d984146100e1578063eb40baf3146100fb578063f3ce3d9e14610172575b600080fd5b6100cd6004803603606081101561006757600080fd5b81359160208101359181019060608101604082013564010000000081111561008e57600080fd5b8201836020820111156100a057600080fd5b803590602001918460018302840111640100000000831117156100c257600080fd5b50909250905061018f565b604080519115158252519081900360200190f35b6100e96101df565b60408051918252519081900360200190f35b6100cd6004803603604081101561011157600080fd5b8135919081019060408101602082013564010000000081111561013357600080fd5b82018360208201111561014557600080fd5b8035906020019184600183028401116401000000008311171561016757600080fd5b5090925090506101e4565b6100e96004803603602081101561018857600080fd5b5035610233565b6000600160001b6101d584848080601f01602080910402602001604051908101604052809392919081815260200183838082843760009201919091525061023a92505050565b1495945050505050565b600181565b6000600160001b61022a84848080601f01602080910402602001604051908101604052809392919081815260200183838082843760009201919091525061023a92505050565b14949350505050565b805b919050565b805160009015610235578160008151811061025157fe5b602001015160f81c60f81b6001600160f81b031916905061023556fea165627a7a723058200d3b00722ccfb604b48afd520191e739d643e4a6e04338ca2c9ff69a22678e090029",
  "source": "pragma solidity ^0.5.6;\n\nimport \"../../interfaces/IOracle.sol\";\n\n\ncontract TestOracle is IOracle {\n    bytes32 public constant TRUE = 0x0000000000000000000000000000000000000000000000000000000000000001;\n\n    function validateCreate(bytes32, bytes calldata  _data) external view returns(bool) {\n        return foo(_data) == TRUE;\n    }\n\n    function validatePlay(bytes32, bytes32, bytes calldata  _data) external view returns(bool) {\n        return foo(_data) == TRUE;\n    }\n\n    function whoWon(bytes32 _eventId) external view returns(bytes32) {\n        return _eventId;\n    }\n\n    function foo(bytes memory _data) internal pure returns(bytes32) {\n        if(_data.length > 0)\n            return _data[0];\n    }\n}\n",
  "sourcePath": "/home/rcn-d1/workspace/eth-gambling-api/contracts/utils/test/TestOracle.sol",
  "compiler": {
    "name": "solc",
    "version": "0.5.6+commit.b259423e.Emscripten.clang"
  },
  "schemaVersion": "3.0.11",
  "updatedAt": "2019-06-30T01:08:29.604Z",
  "devdoc": {
    "methods": {}
  },
  "userdoc": {
    "methods": {}
  }
}