{
  "contractName": "TestModel",
  "abi": [
    {
      "constant": true,
      "inputs": [],
      "name": "TRUE",
      "outputs": [
        {
          "name": "",
          "type": "bytes32"
        }
      ],
      "payable": false,
      "stateMutability": "view",
      "type": "function"
    },
    {
      "constant": false,
      "inputs": [
        {
          "name": "",
          "type": "address"
        },
        {
          "name": "",
          "type": "bytes32"
        },
        {
          "name": "_data",
          "type": "bytes"
        }
      ],
      "name": "create",
      "outputs": [
        {
          "name": "",
          "type": "bool"
        }
      ],
      "payable": false,
      "stateMutability": "nonpayable",
      "type": "function"
    },
    {
      "constant": false,
      "inputs": [
        {
          "name": "",
          "type": "address"
        },
        {
          "name": "",
          "type": "bytes32"
        },
        {
          "name": "",
          "type": "address"
        },
        {
          "name": "_data",
          "type": "bytes"
        }
      ],
      "name": "play",
      "outputs": [
        {
          "name": "",
          "type": "uint256"
        }
      ],
      "payable": false,
      "stateMutability": "nonpayable",
      "type": "function"
    },
    {
      "constant": false,
      "inputs": [
        {
          "name": "",
          "type": "address"
        },
        {
          "name": "",
          "type": "bytes32"
        },
        {
          "name": "",
          "type": "address"
        },
        {
          "name": "_data",
          "type": "bytes"
        }
      ],
      "name": "collect",
      "outputs": [
        {
          "name": "",
          "type": "uint256"
        }
      ],
      "payable": false,
      "stateMutability": "nonpayable",
      "type": "function"
    },
    {
      "constant": false,
      "inputs": [
        {
          "name": "",
          "type": "address"
        },
        {
          "name": "",
          "type": "bytes32"
        },
        {
          "name": "_data",
          "type": "bytes"
        }
      ],
      "name": "cancel",
      "outputs": [
        {
          "name": "",
          "type": "bool"
        }
      ],
      "payable": false,
      "stateMutability": "nonpayable",
      "type": "function"
    },
    {
      "constant": true,
      "inputs": [
        {
          "name": "",
          "type": "address"
        },
        {
          "name": "",
          "type": "bytes32"
        },
        {
          "name": "",
          "type": "bytes"
        }
      ],
      "name": "validateCreate",
      "outputs": [
        {
          "name": "",
          "type": "bool"
        }
      ],
      "payable": false,
      "stateMutability": "view",
      "type": "function"
    },
    {
      "constant": true,
      "inputs": [
        {
          "name": "",
          "type": "address"
        },
        {
          "name": "",
          "type": "bytes32"
        },
        {
          "name": "",
          "type": "address"
        },
        {
          "name": "",
          "type": "bytes"
        }
      ],
      "name": "validatePlay",
      "outputs": [
        {
          "name": "",
          "type": "bool"
        }
      ],
      "payable": false,
      "stateMutability": "view",
      "type": "function"
    },
    {
      "constant": true,
      "inputs": [
        {
          "name": "",
          "type": "bytes32"
        }
      ],
      "name": "getEnd",
      "outputs": [
        {
          "name": "",
          "type": "uint256"
        }
      ],
      "payable": false,
      "stateMutability": "view",
      "type": "function"
    },
    {
      "constant": true,
      "inputs": [
        {
          "name": "",
          "type": "bytes32"
        }
      ],
      "name": "getNoMoreBets",
      "outputs": [
        {
          "name": "",
          "type": "uint256"
        }
      ],
      "payable": false,
      "stateMutability": "view",
      "type": "function"
    },
    {
      "constant": true,
      "inputs": [
        {
          "name": "",
          "type": "bytes32"
        },
        {
          "name": "",
          "type": "bytes"
        }
      ],
      "name": "simNeedAmount",
      "outputs": [
        {
          "name": "",
          "type": "uint256"
        },
        {
          "name": "",
          "type": "bool"
        }
      ],
      "payable": false,
      "stateMutability": "view",
      "type": "function"
    },
    {
      "constant": true,
      "inputs": [
        {
          "name": "",
          "type": "bytes32"
        },
        {
          "name": "",
          "type": "bytes"
        }
      ],
      "name": "simActualReturn",
      "outputs": [
        {
          "name": "",
          "type": "uint256"
        },
        {
          "name": "",
          "type": "bool"
        }
      ],
      "payable": false,
      "stateMutability": "view",
      "type": "function"
    }
  ],
  "bytecode": "0x608060405234801561001057600080fd5b50610545806100206000396000f3fe608060405234801561001057600080fd5b50600436106100a95760003560e01c80635994d984116100715780635994d9841461031c5780636a651876146101745780636c2ca48514610324578063bcaa2caf146100ae578063d715abf9146100dd578063f7d5289314610201576100a9565b806331dd2f0e146100ae5780633fca28f2146100dd57806343272fc9146101745780634749a5341461020157806352ad84001461028f575b600080fd5b6100cb600480360360208110156100c457600080fd5b5035610369565b60408051918252519081900360200190f35b610160600480360360608110156100f357600080fd5b6001600160a01b0382351691602081013591810190606081016040820135600160201b81111561012257600080fd5b82018360208201111561013457600080fd5b803590602001918460018302840111600160201b8311171561015557600080fd5b5090925090506103ae565b604080519115158252519081900360200190f35b6100cb6004803603608081101561018a57600080fd5b6001600160a01b038235811692602081013592604082013590921691810190608081016060820135600160201b8111156101c357600080fd5b8201836020820111156101d557600080fd5b803590602001918460018302840111600160201b831117156101f657600080fd5b50909250905061040c565b6102766004803603604081101561021757600080fd5b81359190810190604081016020820135600160201b81111561023857600080fd5b82018360208201111561024a57600080fd5b803590602001918460018302840111600160201b8311171561026b57600080fd5b509092509050610462565b6040805192835290151560208301528051918290030190f35b610160600480360360808110156102a557600080fd5b6001600160a01b038235811692602081013592604082013590921691810190608081016060820135600160201b8111156102de57600080fd5b8201836020820111156102f057600080fd5b803590602001918460018302840111600160201b8311171561031157600080fd5b509092509050610369565b6100cb6104aa565b6101606004803603606081101561033a57600080fd5b6001600160a01b0382351691602081013591810190606081016040820135600160201b8111156102de57600080fd5b60408051600160e51b62461bcd02815260206004820152600d60248201526001609a1b6c139bdd081a5b5c1b195b595b9d026044820152905160009181900360640190fd5b6000635452554560001b610402600085858080601f016020809104026020016040519081016040528093929190818152602001838380828437600092019190915250929392505063ffffffff6104b2169050565b1495945050505050565b6000610458600084848080601f016020809104026020016040519081016040528093929190818152602001838380828437600092019190915250929392505063ffffffff6104b2169050565b9695505050505050565b60408051600160e51b62461bcd02815260206004820152600d60248201526001609a1b6c139bdd081a5b5c1b195b595b9d026044820152905160009182919081900360640190fd5b635452554581565b600081602001835110156105105760408051600160e51b62461bcd02815260206004820152601260248201527f52656164206f7574206f6620626f756e64730000000000000000000000000000604482015290519081900360640190fd5b5001602001519056fea165627a7a72305820842b35db44807716724226085824148a6fb6528997f6b36de4a0684f66088b630029",
  "source": "pragma solidity ^0.5.6;\n\nimport \"../../interfaces/IModel.sol\";\n\nimport \"../BytesLib.sol\";\n\n\ncontract TestModel is IModel {\n    using BytesLib for bytes;\n\n    bytes32 public constant TRUE = 0x0000000000000000000000000000000000000000000000000000000054525545;\n\n    function create(address, bytes32, bytes calldata _data) external returns(bool) {\n        return _data.toBytes32(0) == TRUE;\n    }\n\n    function play(address, bytes32, address, bytes calldata _data) external returns(uint256) {\n        return _data.toUint256(0);\n    }\n\n    function collect(address, bytes32, address, bytes calldata _data) external returns(uint256) {\n        return _data.toUint256(0);\n    }\n\n    function cancel(address, bytes32, bytes calldata _data) external returns(bool) {\n        return _data.toBytes32(0) == TRUE;\n    }\n\n    function validateCreate(address, bytes32, bytes calldata) external view returns(bool) {\n        revert(\"Not implement\");\n    }\n\n    function validatePlay(address, bytes32, address, bytes calldata) external view returns(bool) {\n        revert(\"Not implement\");\n    }\n\n    function getEnd(bytes32) external view returns (uint256) {\n        revert(\"Not implement\");\n    }\n\n    function getNoMoreBets(bytes32) external view returns (uint256) {\n        revert(\"Not implement\");\n    }\n\n    function simNeedAmount(bytes32, bytes calldata) external view returns (uint256, bool) {\n        revert(\"Not implement\");\n    }\n\n    function simActualReturn(bytes32, bytes calldata) external view returns (uint256, bool) {\n        revert(\"Not implement\");\n    }\n}\n",
  "sourcePath": "/home/rcn-d1/workspace/eth-gambling-api/contracts/utils/test/TestModel.sol",
  "compiler": {
    "name": "solc",
    "version": "0.5.6+commit.b259423e.Emscripten.clang"
  },
  "schemaVersion": "3.0.11",
  "updatedAt": "2019-06-30T01:08:29.603Z",
  "devdoc": {
    "methods": {}
  },
  "userdoc": {
    "methods": {}
  }
}