{
  "contractName": "TestERC721Receiver",
  "abi": [
    {
      "constant": true,
      "inputs": [],
      "name": "lastData",
      "outputs": [
        {
          "name": "",
          "type": "bytes"
        }
      ],
      "payable": false,
      "stateMutability": "view",
      "type": "function"
    },
    {
      "constant": true,
      "inputs": [],
      "name": "REVERT",
      "outputs": [
        {
          "name": "",
          "type": "bytes1"
        }
      ],
      "payable": false,
      "stateMutability": "view",
      "type": "function"
    },
    {
      "constant": true,
      "inputs": [],
      "name": "lastOperator",
      "outputs": [
        {
          "name": "",
          "type": "address"
        }
      ],
      "payable": false,
      "stateMutability": "view",
      "type": "function"
    },
    {
      "constant": true,
      "inputs": [],
      "name": "lastFrom",
      "outputs": [
        {
          "name": "",
          "type": "address"
        }
      ],
      "payable": false,
      "stateMutability": "view",
      "type": "function"
    },
    {
      "constant": true,
      "inputs": [],
      "name": "lastTokenId",
      "outputs": [
        {
          "name": "",
          "type": "uint256"
        }
      ],
      "payable": false,
      "stateMutability": "view",
      "type": "function"
    },
    {
      "constant": true,
      "inputs": [],
      "name": "REJECT",
      "outputs": [
        {
          "name": "",
          "type": "bytes1"
        }
      ],
      "payable": false,
      "stateMutability": "view",
      "type": "function"
    },
    {
      "anonymous": false,
      "inputs": [
        {
          "indexed": false,
          "name": "_operator",
          "type": "address"
        },
        {
          "indexed": false,
          "name": "_from",
          "type": "address"
        },
        {
          "indexed": false,
          "name": "_id",
          "type": "uint256"
        },
        {
          "indexed": false,
          "name": "_data",
          "type": "bytes"
        }
      ],
      "name": "Received",
      "type": "event"
    },
    {
      "constant": false,
      "inputs": [
        {
          "name": "_operator",
          "type": "address"
        },
        {
          "name": "_from",
          "type": "address"
        },
        {
          "name": "_tokenId",
          "type": "uint256"
        },
        {
          "name": "_userData",
          "type": "bytes"
        }
      ],
      "name": "onERC721Received",
      "outputs": [
        {
          "name": "",
          "type": "bytes4"
        }
      ],
      "payable": false,
      "stateMutability": "nonpayable",
      "type": "function"
    }
  ],
  "bytecode": "0x608060405234801561001057600080fd5b5061051d806100206000396000f3fe608060405234801561001057600080fd5b506004361061007c5760003560e01c80636eb3cd491161005b5780636eb3cd49146101d057806380443378146101f4578063f84ddf0b146101fc578063fe6c0203146102165761007c565b80626e75ec14610081578063150b7a02146100fe5780635dd11b37146101ab575b600080fd5b61008961021e565b6040805160208082528351818301528351919283929083019185019080838360005b838110156100c35781810151838201526020016100ab565b50505050905090810190601f1680156100f05780820380516001836020036101000a031916815260200191505b509250505060405180910390f35b61018e6004803603608081101561011457600080fd5b6001600160a01b0382358116926020810135909116916040820135919081019060808101606082013564010000000081111561014f57600080fd5b82018360208201111561016157600080fd5b8035906020019184600183028401116401000000008311171561018357600080fd5b5090925090506102ac565b604080516001600160e01b03199092168252519081900360200190f35b6101b3610422565b604080516001600160f81b03199092168252519081900360200190f35b6101d861042a565b604080516001600160a01b039092168252519081900360200190f35b6101d8610439565b610204610448565b60408051918252519081900360200190f35b6101b361044e565b6003805460408051602060026001851615610100026000190190941693909304601f810184900484028201840190925281815292918301828280156102a45780601f10610279576101008083540402835291602001916102a4565b820191906000526020600020905b81548152906001019060200180831161028757829003601f168201915b505050505081565b60006001821480156102df5750600160f81b83836000816102c957fe5b9050013560f81c60f81b6001600160f81b031916145b156102f357506001600160e01b0319610419565b6001821480156103245750600160f91b838360008161030e57fe5b9050013560f81c60f81b6001600160f81b031916145b1561032e57600080fd5b7ed9411ae77b2bacabe5cbe62a2abdbeb78992a0182c6f3c83e0029c7615d6b6868686868660405180866001600160a01b03166001600160a01b03168152602001856001600160a01b03166001600160a01b03168152602001848152602001806020018281038252848482818152602001925080828437600083820152604051601f909101601f19169092018290039850909650505050505050a1600080546001600160a01b038089166001600160a01b0319928316179092556001805492881692909116919091179055600284905561040a60038484610456565b50600160e11b630a85bd010290505b95945050505050565b600160f91b81565b6000546001600160a01b031681565b6001546001600160a01b031681565b60025481565b600160f81b81565b828054600181600116156101000203166002900490600052602060002090601f016020900481019282601f106104975782800160ff198235161785556104c4565b828001600101855582156104c4579182015b828111156104c45782358255916020019190600101906104a9565b506104d09291506104d4565b5090565b6104ee91905b808211156104d057600081556001016104da565b9056fea165627a7a72305820998d49ac99c7a5c8b9cb51efc3975c6ca9a5ff13c8effbfc428d6251e5682bb00029",
  "source": "pragma solidity ^0.5.6;\n\nimport \"./../../../interfaces/IERC721Receiver.sol\";\n\n\ncontract TestERC721Receiver is IERC721Receiver {\n    address public lastOperator;\n    address public lastFrom;\n    uint256 public lastTokenId;\n    bytes public lastData;\n\n    byte public constant REJECT = 0x01;\n    byte public constant REVERT = 0x02;\n\n    event Received(address _operator, address _from, uint256 _id, bytes _data);\n\n    function onERC721Received(\n        address _operator,\n        address _from,\n        uint256 _tokenId,\n        bytes calldata _userData\n    ) external returns (bytes4) {\n        if(_userData.length == 1 && _userData[0] == REJECT )\n            return bytes4(0xffffffff);\n        if(_userData.length == 1 && _userData[0] == REVERT )\n            revert();\n        emit Received(_operator, _from, _tokenId, _userData);\n        lastOperator = _operator;\n        lastFrom = _from;\n        lastTokenId = _tokenId;\n        lastData = _userData;\n        return bytes4(0x150b7a02);\n    }\n}\n",
  "sourcePath": "/home/rcn-d1/workspace/eth-gambling-api/contracts/utils/test/ERC721Base/TestERC721Receiver.sol",
  "compiler": {
    "name": "solc",
    "version": "0.5.6+commit.b259423e.Emscripten.clang"
  },
  "schemaVersion": "3.0.11",
  "updatedAt": "2019-06-30T01:08:29.584Z",
  "devdoc": {
    "methods": {}
  },
  "userdoc": {
    "methods": {}
  }
}