{
  "contractName": "TestERC721ReceiverLegacyRaw",
  "abi": [
    {
      "constant": true,
      "inputs": [],
      "name": "lastData",
      "outputs": [
        {
          "name": "",
          "type": "bytes"
        }
      ],
      "payable": false,
      "stateMutability": "view",
      "type": "function"
    },
    {
      "constant": true,
      "inputs": [],
      "name": "lastFrom",
      "outputs": [
        {
          "name": "",
          "type": "address"
        }
      ],
      "payable": false,
      "stateMutability": "view",
      "type": "function"
    },
    {
      "constant": true,
      "inputs": [],
      "name": "lastTokenId",
      "outputs": [
        {
          "name": "",
          "type": "uint256"
        }
      ],
      "payable": false,
      "stateMutability": "view",
      "type": "function"
    },
    {
      "anonymous": false,
      "inputs": [],
      "name": "CalledFallback",
      "type": "event"
    },
    {
      "constant": false,
      "inputs": [
        {
          "name": "_from",
          "type": "address"
        },
        {
          "name": "_tokenId",
          "type": "uint256"
        },
        {
          "name": "_userData",
          "type": "bytes"
        }
      ],
      "name": "onERC721Received",
      "outputs": [
        {
          "name": "",
          "type": "bytes4"
        }
      ],
      "payable": false,
      "stateMutability": "nonpayable",
      "type": "function"
    }
  ],
  "bytecode": "0x608060405234801561001057600080fd5b50610355806100206000396000f3fe608060405234801561001057600080fd5b506004361061004b5760003560e01c80626e75ec1461005057806380443378146100cd578063f0b9e5ba146100f1578063f84ddf0b14610193575b600080fd5b6100586101ad565b6040805160208082528351818301528351919283929083019185019080838360005b8381101561009257818101518382015260200161007a565b50505050905090810190601f1680156100bf5780820380516001836020036101000a031916815260200191505b509250505060405180910390f35b6100d5610238565b604080516001600160a01b039092168252519081900360200190f35b6101766004803603606081101561010757600080fd5b6001600160a01b038235169160208101359181019060608101604082013564010000000081111561013757600080fd5b82018360208201111561014957600080fd5b8035906020019184600183028401116401000000008311171561016b57600080fd5b509092509050610247565b604080516001600160e01b03199092168252519081900360200190f35b61019b610288565b60408051918252519081900360200190f35b6002805460408051602060018416156101000260001901909316849004601f810184900484028201840190925281815292918301828280156102305780601f1061020557610100808354040283529160200191610230565b820191906000526020600020905b81548152906001019060200180831161021357829003601f168201915b505050505081565b6000546001600160a01b031681565b600080546001600160a01b0319166001600160a01b03861617815560018490556102736002848461028e565b50600160e11b63785cf2dd0295945050505050565b60015481565b828054600181600116156101000203166002900490600052602060002090601f016020900481019282601f106102cf5782800160ff198235161785556102fc565b828001600101855582156102fc579182015b828111156102fc5782358255916020019190600101906102e1565b5061030892915061030c565b5090565b61032691905b808211156103085760008155600101610312565b9056fea165627a7a72305820274e4a17b2f60bd389953f834aefe30ff402fcdc1fb4cd69da40f77046b102570029",
  "source": "pragma solidity ^0.5.6;\n\nimport \"./../../../interfaces/IERC721ReceiverLegacy.sol\";\n\n\ncontract TestERC721ReceiverLegacyRaw is IERC721ReceiverLegacy {\n    address public lastFrom;\n    uint256 public lastTokenId;\n    bytes public lastData;\n\n    event CalledFallback();\n\n    function onERC721Received(\n        address _from,\n        uint256 _tokenId,\n        bytes calldata _userData\n    ) external returns (bytes4) {\n        lastFrom = _from;\n        lastTokenId = _tokenId;\n        lastData = _userData;\n        return bytes4(0xf0b9e5ba);\n    }\n}\n",
  "sourcePath": "/home/rcn-d1/workspace/eth-gambling-api/contracts/utils/test/ERC721Base/TestERC721ReceiverLegacyRaw.sol",
  "compiler": {
    "name": "solc",
    "version": "0.5.6+commit.b259423e.Emscripten.clang"
  },
  "schemaVersion": "3.0.11",
  "updatedAt": "2019-06-30T01:08:29.586Z",
  "devdoc": {
    "methods": {}
  },
  "userdoc": {
    "methods": {}
  }
}