{
  "contractName": "TestERC165",
  "abi": [
    {
      "constant": true,
      "inputs": [
        {
          "name": "interfaceId",
          "type": "bytes4"
        }
      ],
      "name": "supportsInterface",
      "outputs": [
        {
          "name": "",
          "type": "bool"
        }
      ],
      "payable": false,
      "stateMutability": "view",
      "type": "function"
    },
    {
      "constant": false,
      "inputs": [
        {
          "name": "interfaceId",
          "type": "bytes4"
        }
      ],
      "name": "registerInterface",
      "outputs": [],
      "payable": false,
      "stateMutability": "nonpayable",
      "type": "function"
    }
  ],
  "bytecode": "0x608060405261001a6301ffc9a760e01b61001f60201b60201c565b6100ed565b7fffffffff0000000000000000000000000000000000000000000000000000000080821614156100b057604080517f08c379a000000000000000000000000000000000000000000000000000000000815260206004820152601960248201527f43616e2774207265676973746572203078666666666666666600000000000000604482015290519081900360640190fd5b7fffffffff00000000000000000000000000000000000000000000000000000000166000908152602081905260409020805460ff19166001179055565b61017d806100fc6000396000f3fe608060405234801561001057600080fd5b50600436106100365760003560e01c806301ffc9a71461003b578063214cdb8014610076575b600080fd5b6100626004803603602081101561005157600080fd5b50356001600160e01b03191661009f565b604080519115158252519081900360200190f35b61009d6004803603602081101561008c57600080fd5b50356001600160e01b0319166100be565b005b6001600160e01b03191660009081526020819052604090205460ff1690565b6100c7816100ca565b50565b6001600160e01b0319808216141561012c5760408051600160e51b62461bcd02815260206004820152601960248201527f43616e2774207265676973746572203078666666666666666600000000000000604482015290519081900360640190fd5b6001600160e01b0319166000908152602081905260409020805460ff1916600117905556fea165627a7a723058202cc29cb30d8af249bf3f12cd444d7ed3f3aa52d4b06e434058db342261eeddcc0029",
  "source": "pragma solidity ^0.5.6;\n\nimport \"./../../ERC165.sol\";\n\n\ncontract TestERC165 is ERC165 {\n    function registerInterface(bytes4 interfaceId) external {\n        _registerInterface(interfaceId);\n    }\n}\n",
  "sourcePath": "/home/rcn-d1/workspace/eth-gambling-api/contracts/utils/test/ERC721Base/TestERC165.sol",
  "compiler": {
    "name": "solc",
    "version": "0.5.6+commit.b259423e.Emscripten.clang"
  },
  "schemaVersion": "3.0.11",
  "updatedAt": "2019-06-30T01:08:29.584Z",
  "devdoc": {
    "methods": {
      "supportsInterface(bytes4)": {
        "details": "implement supportsInterface(bytes4) using a lookup table"
      }
    }
  },
  "userdoc": {
    "methods": {}
  }
}