{
  "contractName": "TestERC721",
  "abi": [
    {
      "constant": true,
      "inputs": [
        {
          "name": "interfaceId",
          "type": "bytes4"
        }
      ],
      "name": "supportsInterface",
      "outputs": [
        {
          "name": "",
          "type": "bool"
        }
      ],
      "payable": false,
      "stateMutability": "view",
      "type": "function"
    },
    {
      "constant": true,
      "inputs": [],
      "name": "name",
      "outputs": [
        {
          "name": "",
          "type": "string"
        }
      ],
      "payable": false,
      "stateMutability": "view",
      "type": "function"
    },
    {
      "constant": true,
      "inputs": [
        {
          "name": "_erc721Id",
          "type": "uint256"
        }
      ],
      "name": "getApproved",
      "outputs": [
        {
          "name": "",
          "type": "address"
        }
      ],
      "payable": false,
      "stateMutability": "view",
      "type": "function"
    },
    {
      "constant": false,
      "inputs": [
        {
          "name": "_operator",
          "type": "address"
        },
        {
          "name": "_assetId",
          "type": "uint256"
        }
      ],
      "name": "approve",
      "outputs": [],
      "payable": false,
      "stateMutability": "nonpayable",
      "type": "function"
    },
    {
      "constant": true,
      "inputs": [],
      "name": "totalSupply",
      "outputs": [
        {
          "name": "",
          "type": "uint256"
        }
      ],
      "payable": false,
      "stateMutability": "view",
      "type": "function"
    },
    {
      "constant": false,
      "inputs": [
        {
          "name": "_from",
          "type": "address"
        },
        {
          "name": "_to",
          "type": "address"
        },
        {
          "name": "_assetId",
          "type": "uint256"
        }
      ],
      "name": "transferFrom",
      "outputs": [],
      "payable": false,
      "stateMutability": "nonpayable",
      "type": "function"
    },
    {
      "constant": true,
      "inputs": [
        {
          "name": "_operator",
          "type": "address"
        },
        {
          "name": "_assetId",
          "type": "uint256"
        }
      ],
      "name": "isAuthorized",
      "outputs": [
        {
          "name": "",
          "type": "bool"
        }
      ],
      "payable": false,
      "stateMutability": "view",
      "type": "function"
    },
    {
      "constant": true,
      "inputs": [
        {
          "name": "_owner",
          "type": "address"
        }
      ],
      "name": "assetsOf",
      "outputs": [
        {
          "name": "",
          "type": "uint256[]"
        }
      ],
      "payable": false,
      "stateMutability": "view",
      "type": "function"
    },
    {
      "constant": false,
      "inputs": [
        {
          "name": "_from",
          "type": "address"
        },
        {
          "name": "_to",
          "type": "address"
        },
        {
          "name": "_assetId",
          "type": "uint256"
        }
      ],
      "name": "safeTransferFrom",
      "outputs": [],
      "payable": false,
      "stateMutability": "nonpayable",
      "type": "function"
    },
    {
      "constant": true,
      "inputs": [
        {
          "name": "_index",
          "type": "uint256"
        }
      ],
      "name": "erc721ByIndex",
      "outputs": [
        {
          "name": "",
          "type": "uint256"
        }
      ],
      "payable": false,
      "stateMutability": "view",
      "type": "function"
    },
    {
      "constant": true,
      "inputs": [
        {
          "name": "",
          "type": "address"
        },
        {
          "name": "",
          "type": "uint256"
        }
      ],
      "name": "allAssetsOf",
      "outputs": [
        {
          "name": "",
          "type": "uint256"
        }
      ],
      "payable": false,
      "stateMutability": "view",
      "type": "function"
    },
    {
      "constant": true,
      "inputs": [
        {
          "name": "_erc721Id",
          "type": "uint256"
        }
      ],
      "name": "ownerOf",
      "outputs": [
        {
          "name": "",
          "type": "address"
        }
      ],
      "payable": false,
      "stateMutability": "view",
      "type": "function"
    },
    {
      "constant": true,
      "inputs": [
        {
          "name": "_owner",
          "type": "address"
        }
      ],
      "name": "balanceOf",
      "outputs": [
        {
          "name": "",
          "type": "uint256"
        }
      ],
      "payable": false,
      "stateMutability": "view",
      "type": "function"
    },
    {
      "constant": true,
      "inputs": [
        {
          "name": "",
          "type": "uint256"
        }
      ],
      "name": "indexOfAsset",
      "outputs": [
        {
          "name": "",
          "type": "uint256"
        }
      ],
      "payable": false,
      "stateMutability": "view",
      "type": "function"
    },
    {
      "constant": true,
      "inputs": [],
      "name": "allErc721Ids",
      "outputs": [
        {
          "name": "",
          "type": "uint256[]"
        }
      ],
      "payable": false,
      "stateMutability": "view",
      "type": "function"
    },
    {
      "constant": true,
      "inputs": [
        {
          "name": "",
          "type": "uint256"
        }
      ],
      "name": "erc721Ids",
      "outputs": [
        {
          "name": "",
          "type": "uint256"
        }
      ],
      "payable": false,
      "stateMutability": "view",
      "type": "function"
    },
    {
      "constant": true,
      "inputs": [
        {
          "name": "_owner",
          "type": "address"
        },
        {
          "name": "_index",
          "type": "uint256"
        }
      ],
      "name": "erc721OfOwnerByIndex",
      "outputs": [
        {
          "name": "",
          "type": "uint256"
        }
      ],
      "payable": false,
      "stateMutability": "view",
      "type": "function"
    },
    {
      "constant": true,
      "inputs": [],
      "name": "symbol",
      "outputs": [
        {
          "name": "",
          "type": "string"
        }
      ],
      "payable": false,
      "stateMutability": "view",
      "type": "function"
    },
    {
      "constant": false,
      "inputs": [
        {
          "name": "_operator",
          "type": "address"
        },
        {
          "name": "_authorized",
          "type": "bool"
        }
      ],
      "name": "setApprovalForAll",
      "outputs": [],
      "payable": false,
      "stateMutability": "nonpayable",
      "type": "function"
    },
    {
      "constant": false,
      "inputs": [
        {
          "name": "_from",
          "type": "address"
        },
        {
          "name": "_to",
          "type": "address"
        },
        {
          "name": "_assetId",
          "type": "uint256"
        },
        {
          "name": "_userData",
          "type": "bytes"
        }
      ],
      "name": "safeTransferFrom",
      "outputs": [],
      "payable": false,
      "stateMutability": "nonpayable",
      "type": "function"
    },
    {
      "constant": true,
      "inputs": [
        {
          "name": "_erc721Id",
          "type": "uint256"
        }
      ],
      "name": "tokenURI",
      "outputs": [
        {
          "name": "",
          "type": "string"
        }
      ],
      "payable": false,
      "stateMutability": "view",
      "type": "function"
    },
    {
      "constant": true,
      "inputs": [
        {
          "name": "_operator",
          "type": "address"
        },
        {
          "name": "_owner",
          "type": "address"
        }
      ],
      "name": "isApprovedForAll",
      "outputs": [
        {
          "name": "",
          "type": "bool"
        }
      ],
      "payable": false,
      "stateMutability": "view",
      "type": "function"
    },
    {
      "inputs": [],
      "payable": false,
      "stateMutability": "nonpayable",
      "type": "constructor"
    },
    {
      "anonymous": false,
      "inputs": [
        {
          "indexed": false,
          "name": "_uriProvider",
          "type": "address"
        }
      ],
      "name": "SetURIProvider",
      "type": "event"
    },
    {
      "anonymous": false,
      "inputs": [
        {
          "indexed": true,
          "name": "_from",
          "type": "address"
        },
        {
          "indexed": true,
          "name": "_to",
          "type": "address"
        },
        {
          "indexed": false,
          "name": "_tokenId",
          "type": "uint256"
        }
      ],
      "name": "Transfer",
      "type": "event"
    },
    {
      "anonymous": false,
      "inputs": [
        {
          "indexed": true,
          "name": "_owner",
          "type": "address"
        },
        {
          "indexed": true,
          "name": "_approved",
          "type": "address"
        },
        {
          "indexed": false,
          "name": "_tokenId",
          "type": "uint256"
        }
      ],
      "name": "Approval",
      "type": "event"
    },
    {
      "anonymous": false,
      "inputs": [
        {
          "indexed": true,
          "name": "_owner",
          "type": "address"
        },
        {
          "indexed": true,
          "name": "_operator",
          "type": "address"
        },
        {
          "indexed": false,
          "name": "_approved",
          "type": "bool"
        }
      ],
      "name": "ApprovalForAll",
      "type": "event"
    },
    {
      "constant": false,
      "inputs": [
        {
          "name": "id",
          "type": "uint256"
        },
        {
          "name": "dest",
          "type": "address"
        }
      ],
      "name": "generate",
      "outputs": [],
      "payable": false,
      "stateMutability": "nonpayable",
      "type": "function"
    }
  ],
  "bytecode": "0x60806040523480156200001157600080fd5b506040518060400160405280600b81526020017f54657374204552433732310000000000000000000000000000000000000000008152506040518060400160405280600381526020017f5453540000000000000000000000000000000000000000000000000000000000815250620000966301ffc9a760e01b6200011260201b60201c565b8151620000ab906007906020850190620001e1565b508051620000c1906008906020840190620001e1565b50620000da6380ac58cd60e01b6200011260201b60201c565b620000f2635b5e139f60e01b6200011260201b60201c565b6200010a63780e9d6360e01b6200011260201b60201c565b505062000286565b7fffffffff000000000000000000000000000000000000000000000000000000008082161415620001a457604080517f08c379a000000000000000000000000000000000000000000000000000000000815260206004820152601960248201527f43616e2774207265676973746572203078666666666666666600000000000000604482015290519081900360640190fd5b7fffffffff00000000000000000000000000000000000000000000000000000000166000908152602081905260409020805460ff19166001179055565b828054600181600116156101000203166002900490600052602060002090601f016020900481019282601f106200022457805160ff191683800117855562000254565b8280016001018555821562000254579182015b828111156200025457825182559160200191906001019062000237565b506200026292915062000266565b5090565b6200028391905b808211156200026257600081556001016200026d565b90565b6116a580620002966000396000f3fe608060405234801561001057600080fd5b506004361061014d5760003560e01c80636352211e116100c35780639435237a1161007c5780639435237a1461049357806395d89b41146104bf578063a22cb465146104c7578063b88d4fde146104f5578063c87b56dd14610585578063e985e9c5146105a25761014d565b80636352211e146103e257806370a08231146103ff5780637579de8f14610425578063835977311461045157806385c1b75f1461046e578063902944d6146104765761014d565b806323b872dd1161011557806323b872dd1461028b5780632972b0f0146102c15780632c62fa10146102ed57806342842e0e146103635780634ad6d3661461039957806353298b7f146103b65761014d565b806301ffc9a71461015257806306fdde031461018d578063081812fc1461020a578063095ea7b31461024357806318160ddd14610271575b600080fd5b6101796004803603602081101561016857600080fd5b50356001600160e01b0319166105d0565b604080519115158252519081900360200190f35b6101956105ef565b6040805160208082528351818301528351919283929083019185019080838360005b838110156101cf5781810151838201526020016101b7565b50505050905090810190601f1680156101fc5780820380516001836020036101000a031916815260200191505b509250505060405180910390f35b6102276004803603602081101561022057600080fd5b5035610686565b604080516001600160a01b039092168252519081900360200190f35b61026f6004803603604081101561025957600080fd5b506001600160a01b0381351690602001356106a1565b005b6102796107c9565b60408051918252519081900360200190f35b61026f600480360360608110156102a157600080fd5b506001600160a01b038135811691602081013590911690604001356107cf565b610179600480360360408110156102d757600080fd5b506001600160a01b0381351690602001356107ec565b6103136004803603602081101561030357600080fd5b50356001600160a01b0316610867565b60408051602080825283518183015283519192839290830191858101910280838360005b8381101561034f578181015183820152602001610337565b505050509050019250505060405180910390f35b61026f6004803603606081101561037957600080fd5b506001600160a01b038135811691602081013590911690604001356108d3565b610279600480360360208110156103af57600080fd5b50356108f0565b610279600480360360408110156103cc57600080fd5b506001600160a01b03813516906020013561096b565b610227600480360360208110156103f857600080fd5b5035610999565b6102796004803603602081101561041557600080fd5b50356001600160a01b03166109b4565b61026f6004803603604081101561043b57600080fd5b50803590602001356001600160a01b03166109cf565b6102796004803603602081101561046757600080fd5b50356109dd565b6103136109ef565b6102796004803603602081101561048c57600080fd5b5035610a46565b610279600480360360408110156104a957600080fd5b506001600160a01b038135169060200135610a64565b610195610b0a565b61026f600480360360408110156104dd57600080fd5b506001600160a01b0381351690602001351515610b6b565b61026f6004803603608081101561050b57600080fd5b6001600160a01b0382358116926020810135909116916040820135919081019060808101606082013564010000000081111561054657600080fd5b82018360208201111561055857600080fd5b8035906020019184600183028401116401000000008311171561057a57600080fd5b509092509050610c0a565b6101956004803603602081101561059b57600080fd5b5035610c56565b610179600480360360408110156105b857600080fd5b506001600160a01b0381358116916020013516610dc2565b6001600160e01b03191660009081526020819052604090205460ff1690565b60078054604080516020601f600260001961010060018816150201909516949094049384018190048102820181019092528281526060939092909183018282801561067b5780601f106106505761010080835404028352916020019161067b565b820191906000526020600020905b81548152906001019060200180831161065e57829003601f168201915b505050505090505b90565b6000908152600460205260409020546001600160a01b031690565b6000818152600160205260409020546001600160a01b0316338114806106ea57506001600160a01b038116600090815260036020908152604080832033845290915290205460ff165b61073e5760408051600160e51b62461bcd02815260206004820152601860248201527f6d73672e73656e6465722063616e277420617070726f76650000000000000000604482015290519081900360640190fd5b6000828152600460205260409020546001600160a01b038481169116146107c45760008281526004602090815260409182902080546001600160a01b0319166001600160a01b03878116918217909255835186815293519093918516927f8c5be1e5ebec7d5bd14f71427d1e84f3dd0314c0f7b2291e5b200ac8c7c3b925928290030190a35b505050565b60065490565b6107c4838383604051806020016040528060008152506000610df1565b6000818152600160205260408120546001600160a01b0390811690841681148061082f57506000838152600460205260409020546001600160a01b038581169116145b8061085f57506001600160a01b0380821660009081526003602090815260408083209388168352929052205460ff165b949350505050565b6001600160a01b0381166000908152600260209081526040918290208054835181840281018401909452808452606093928301828280156108c757602002820191906000526020600020905b8154815260200190600101908083116108b3575b50505050509050919050565b6107c4838383604051806020016040528060008152506001610df1565b600654600090821061094c5760408051600160e51b62461bcd02815260206004820152601360248201527f496e646578206f7574206f6620626f756e647300000000000000000000000000604482015290519081900360640190fd5b6006828154811061095957fe5b90600052602060002001549050919050565b6002602052816000526040600020818154811061098457fe5b90600052602060002001600091509150505481565b6000908152600160205260409020546001600160a01b031690565b6001600160a01b031660009081526002602052604090205490565b6109d98282611435565b5050565b60056020526000908152604090205481565b6060600680548060200260200160405190810160405280929190818152602001828054801561067b57602002820191906000526020600020905b815481526020019060010190808311610a29575050505050905090565b60068181548110610a5357fe5b600091825260209091200154905081565b6001600160a01b0382166000908152600260205260408120548210610ad35760408051600160e51b62461bcd02815260206004820152601360248201527f496e646578206f7574206f6620626f756e647300000000000000000000000000604482015290519081900360640190fd5b6001600160a01b0383166000908152600260205260409020805483908110610af757fe5b9060005260206000200154905092915050565b60088054604080516020601f600260001961010060018816150201909516949094049384018190048102820181019092528281526060939092909183018282801561067b5780601f106106505761010080835404028352916020019161067b565b3360009081526003602090815260408083206001600160a01b038616845290915290205460ff161515811515146109d9573360008181526003602090815260408083206001600160a01b03871680855290835292819020805460ff1916861515908117909155815190815290519293927f17307eab39ab6107e8899845ad3d59bd9653f200f220920489ca2b5937696c31929181900390910190a35050565b610c4f85858585858080601f01602080910402602001604051908101604052809392919081815260200183838082843760009201919091525060019250610df1915050565b5050505050565b6000818152600160205260409020546060906001600160a01b0316610cc55760408051600160e51b62461bcd02815260206004820152601460248201527f417373657420646f6573206e6f74206578697374000000000000000000000000604482015290519081900360640190fd5b6009546001600160a01b03168015610daa57806001600160a01b031663c87b56dd846040518263ffffffff1660e01b81526004018082815260200191505060006040518083038186803b158015610d1b57600080fd5b505afa158015610d2f573d6000803e3d6000fd5b505050506040513d6000823e601f3d908101601f191682016040526020811015610d5857600080fd5b810190808051640100000000811115610d7057600080fd5b82016020810184811115610d8357600080fd5b8151640100000000811182820187101715610d9d57600080fd5b5050929190505050610dbb565b604051806020016040528060008152505b9392505050565b6001600160a01b0380821660009081526003602090815260408083209386168352929052205460ff1692915050565b6001600160a01b038416610e4f5760408051600160e51b62461bcd02815260206004820152601360248201527f5461726765742063616e27742062652030783000000000000000000000000000604482015290519081900360640190fd5b6000838152600160205260409020546001600160a01b031633811480610e8b57506000848152600460205260409020546001600160a01b031633145b80610eb957506001600160a01b038116600090815260036020908152604080832033845290915290205460ff165b610f0d5760408051600160e51b62461bcd02815260206004820152601960248201527f6d73672e73656e646572204e6f7420617574686f72697a656400000000000000604482015290519081900360640190fd5b806001600160a01b0316866001600160a01b031614610f765760408051600160e51b62461bcd02815260206004820152601160248201527f4e6f742063757272656e74206f776e6572000000000000000000000000000000604482015290519081900360640190fd5b6000848152600460205260409020546001600160a01b031615610fed57600084815260046020908152604080832080546001600160a01b0319169055805187815290516001600160a01b038a16927f8c5be1e5ebec7d5bd14f71427d1e84f3dd0314c0f7b2291e5b200ac8c7c3b925928290030190a35b6000848152600560209081526040808320546001600160a01b038a168452600290925290912054600019018082146110a1576001600160a01b038816600090815260026020526040812080548390811061104357fe5b9060005260206000200154905080600260008b6001600160a01b03166001600160a01b03168152602001908152602001600020848154811061108157fe5b600091825260208083209091019290925591825260059052604090208290555b6001600160a01b03881660009081526002602052604090208054829081106110c557fe5b600091825260208083209091018290556001600160a01b038a16825260029052604090208054906110fa90600019830161163c565b50600086815260016020818152604080842080546001600160a01b0319166001600160a01b038d1690811790915584526002825280842080549384018155845281842083018a90558984526005909152909120558380156111685750611168876001600160a01b0316611561565b156113e0576000806112628963150b7a0260e01b338d8c8c60405160240180856001600160a01b03166001600160a01b03168152602001846001600160a01b03166001600160a01b0316815260200183815260200180602001828103825283818151815260200191508051906020019080838360005b838110156111f65781810151838201526020016111de565b50505050905090810190601f1680156112235780820380516001836020036101000a031916815260200191505b5060408051601f198184030181529190526020810180516001600160e01b03166001600160e01b03199099169890981790975250611567945050505050565b9150915081158061128757506001600160e01b03198116600160e11b630a85bd010214155b156113dd576113648963f0b9e5ba60e01b8c8b8b60405160240180846001600160a01b03166001600160a01b0316815260200183815260200180602001828103825283818151815260200191508051906020019080838360005b838110156112f95781810151838201526020016112e1565b50505050905090810190601f1680156113265780820380516001836020036101000a031916815260200191505b5060408051601f198184030181529190526020810180516001600160e01b03166001600160e01b031990981697909717909652506115679350505050565b909250905081801561138957506001600160e01b03198116600160e11b63785cf2dd02145b6113dd5760408051600160e51b62461bcd02815260206004820152601b60248201527f436f6e74726163742072656a65637465642074686520746f6b656e0000000000604482015290519081900360640190fd5b50505b866001600160a01b0316886001600160a01b03167fddf252ad1be2c89b69c2b068fc378daa952ba7f163c4a11628f55a4df523b3ef886040518082815260200191505060405180910390a35050505050505050565b6000828152600160205260409020546001600160a01b0316156114a25760408051600160e51b62461bcd02815260206004820152601460248201527f417373657420616c726561647920657869737473000000000000000000000000604482015290519081900360640190fd5b600082815260016020818152604080842080546001600160a01b0319166001600160a01b03871690811790915580855260028352818520805480860182559086528386208101889055878652600584528286205560068054948501815585527ff652222313e28459528d920b65115c16c04f3efc82aaedc97be59f3f377c0d3f909301869055805186815290519293927fddf252ad1be2c89b69c2b068fc378daa952ba7f163c4a11628f55a4df523b3ef929181900390910190a35050565b3b151590565b6000806060846001600160a01b0316846040518082805190602001908083835b602083106115a65780518252601f199092019160209182019101611587565b6001836020036101000a0380198251168184511680821785525050505050509050019150506000604051808303816000865af19150503d8060008114611608576040519150601f19603f3d011682016040523d82523d6000602084013e61160d565b606091505b5080519194509150156116345780806020019051602081101561162f57600080fd5b505191505b509250929050565b8154818355818111156107c4576000838152602090206107c491810190830161068391905b808211156116755760008155600101611661565b509056fea165627a7a7230582099e06695ec2af445a44c3cc066fce8dfa00995e9871a9c9aff871a4c9f71a3f30029",
  "source": "pragma solidity ^0.5.6;\n\nimport \"./../../ERC721Base.sol\";\n\n\ncontract TestERC721 is ERC721Base {\n    constructor() public ERC721Base(\"Test ERC721\", \"TST\") {}\n\n    function generate(uint256 id, address dest) external {\n        _generate(id, dest);\n    }\n}\n",
  "sourcePath": "/home/rcn-d1/workspace/eth-gambling-api/contracts/utils/test/ERC721Base/TestERC721.sol",
  "compiler": {
    "name": "solc",
    "version": "0.5.6+commit.b259423e.Emscripten.clang"
  },
  "schemaVersion": "3.0.11",
  "updatedAt": "2019-06-30T01:08:29.584Z",
  "devdoc": {
    "methods": {
      "approve(address,uint256)": {
        "details": "Authorize a third party operator to manage one particular asset",
        "params": {
          "_assetId": "asset to approve",
          "_operator": "address to be approved"
        }
      },
      "balanceOf(address)": {
        "details": "Gets the balance of the specified address",
        "params": {
          "_owner": "address to query the balance of"
        },
        "return": "uint256 representing the amount owned by the passed address"
      },
      "erc721ByIndex(uint256)": {
        "details": "Throws if `_index` >= `totalSupply()`.",
        "params": {
          "_index": "A counter less than `totalSupply()`"
        },
        "return": "The ERC721 identifier for the `_index` of the NFT, (sort order not specified)"
      },
      "erc721OfOwnerByIndex(address,uint256)": {
        "details": "Throws if `_index` >= `balanceOf(_owner)` or if `_owner` is the zero address, representing invalid NFTs.",
        "params": {
          "_index": "A counter less than `balanceOf(_owner)`",
          "_owner": "An address where we are interested in NFTs owned by them"
        },
        "return": "The ERC721 identifier for the `_index` of the NFT assigned to `_owner`,  (sort order not specified)"
      },
      "isApprovedForAll(address,address)": {
        "details": "Query whether an address has been authorized to move any assets on behalf of someone else",
        "params": {
          "_operator": "the address that might be authorized",
          "_owner": "the address that provided the authorization"
        },
        "return": "bool true if the operator has been authorized to move any assets"
      },
      "isAuthorized(address,uint256)": {
        "details": "Query if an operator can move an asset.",
        "params": {
          "_assetId": "the asset that has been `approved` for transfer",
          "_operator": "the address that might be authorized"
        },
        "return": "bool true if the asset has been approved by the owner"
      },
      "safeTransferFrom(address,address,uint256)": {
        "details": "Alias of `safeTransferFrom(from, to, assetId, '')`",
        "params": {
          "_assetId": "uint256 ID of the asset to be transferred",
          "_from": "address that currently owns an asset",
          "_to": "address to receive the ownership of the asset"
        }
      },
      "safeTransferFrom(address,address,uint256,bytes)": {
        "details": "Securely transfers the ownership of a given asset from one address to another address, calling the method `onNFTReceived` on the target address if there's code associated with it",
        "params": {
          "_assetId": "uint256 ID of the asset to be transferred",
          "_from": "address that currently owns an asset",
          "_to": "address to receive the ownership of the asset",
          "_userData": "bytes arbitrary user information to attach to this transfer"
        }
      },
      "setApprovalForAll(address,bool)": {
        "details": "Authorize a third party operator to manage (send) msg.sender's asset",
        "params": {
          "_authorized": "bool set to true to authorize, false to withdraw authorization",
          "_operator": "address to be approved"
        }
      },
      "supportsInterface(bytes4)": {
        "details": "implement supportsInterface(bytes4) using a lookup table"
      },
      "tokenURI(uint256)": {
        "details": "Throws if `_erc721Id` is not a valid NFT. URIs are defined in RFC 3986. The URI may point to a JSON file that conforms to the \"ERC721 Metadata JSON Schema\"."
      },
      "totalSupply()": {
        "details": "Gets the total amount of assets stored by the contract",
        "return": "uint256 representing the total amount of assets"
      },
      "transferFrom(address,address,uint256)": {
        "details": "Transfers the ownership of a given asset from one address to another address Warning! This function does not attempt to verify that the target address can send erc721Ids.",
        "params": {
          "_assetId": "uint256 ID of the asset to be transferred",
          "_from": "address sending the asset",
          "_to": "address to receive the ownership of the asset"
        }
      }
    }
  },
  "userdoc": {
    "methods": {
      "erc721ByIndex(uint256)": {
        "notice": "Enumerate valid NFTs"
      },
      "erc721OfOwnerByIndex(address,uint256)": {
        "notice": "Enumerate NFTs assigned to an owner"
      },
      "tokenURI(uint256)": {
        "notice": "A distinct Uniform Resource Identifier (URI) for a given asset."
      }
    }
  }
}