{
  "contractName": "TestERC721ReceiverLegacy",
  "abi": [
    {
      "constant": true,
      "inputs": [],
      "name": "lastData",
      "outputs": [
        {
          "name": "",
          "type": "bytes"
        }
      ],
      "payable": false,
      "stateMutability": "view",
      "type": "function"
    },
    {
      "constant": true,
      "inputs": [],
      "name": "lastFrom",
      "outputs": [
        {
          "name": "",
          "type": "address"
        }
      ],
      "payable": false,
      "stateMutability": "view",
      "type": "function"
    },
    {
      "constant": true,
      "inputs": [],
      "name": "lastTokenId",
      "outputs": [
        {
          "name": "",
          "type": "uint256"
        }
      ],
      "payable": false,
      "stateMutability": "view",
      "type": "function"
    },
    {
      "payable": false,
      "stateMutability": "nonpayable",
      "type": "fallback"
    },
    {
      "anonymous": false,
      "inputs": [],
      "name": "CalledFallback",
      "type": "event"
    },
    {
      "constant": false,
      "inputs": [
        {
          "name": "_from",
          "type": "address"
        },
        {
          "name": "_tokenId",
          "type": "uint256"
        },
        {
          "name": "_userData",
          "type": "bytes"
        }
      ],
      "name": "onERC721Received",
      "outputs": [
        {
          "name": "",
          "type": "bytes4"
        }
      ],
      "payable": false,
      "stateMutability": "nonpayable",
      "type": "function"
    }
  ],
  "bytecode": "0x608060405234801561001057600080fd5b5061037b806100206000396000f3fe608060405234801561001057600080fd5b506004361061004b5760003560e01c80626e75ec1461007657806380443378146100f3578063f0b9e5ba14610117578063f84ddf0b146101b9575b6040517ff484555e560219ba92359a6b35eed548984c8f90ad8bc7867ce77e8906a2a4ca90600090a1005b61007e6101d3565b6040805160208082528351818301528351919283929083019185019080838360005b838110156100b85781810151838201526020016100a0565b50505050905090810190601f1680156100e55780820380516001836020036101000a031916815260200191505b509250505060405180910390f35b6100fb61025e565b604080516001600160a01b039092168252519081900360200190f35b61019c6004803603606081101561012d57600080fd5b6001600160a01b038235169160208101359181019060608101604082013564010000000081111561015d57600080fd5b82018360208201111561016f57600080fd5b8035906020019184600183028401116401000000008311171561019157600080fd5b50909250905061026d565b604080516001600160e01b03199092168252519081900360200190f35b6101c16102ae565b60408051918252519081900360200190f35b6002805460408051602060018416156101000260001901909316849004601f810184900484028201840190925281815292918301828280156102565780601f1061022b57610100808354040283529160200191610256565b820191906000526020600020905b81548152906001019060200180831161023957829003601f168201915b505050505081565b6000546001600160a01b031681565b600080546001600160a01b0319166001600160a01b0386161781556001849055610299600284846102b4565b50600160e11b63785cf2dd0295945050505050565b60015481565b828054600181600116156101000203166002900490600052602060002090601f016020900481019282601f106102f55782800160ff19823516178555610322565b82800160010185558215610322579182015b82811115610322578235825591602001919060010190610307565b5061032e929150610332565b5090565b61034c91905b8082111561032e5760008155600101610338565b9056fea165627a7a7230582077c506deac7acac19b9a1599e039ee644fb0e0a2dc96feb7ded327bdbf6c6dd50029",
  "source": "pragma solidity ^0.5.6;\n\nimport \"./../../../interfaces/IERC721ReceiverLegacy.sol\";\n\n\ncontract TestERC721ReceiverLegacy is IERC721ReceiverLegacy {\n    address public lastFrom;\n    uint256 public lastTokenId;\n    bytes public lastData;\n\n    event CalledFallback();\n\n    function onERC721Received(\n        address _from,\n        uint256 _tokenId,\n        bytes calldata _userData\n    ) external returns (bytes4) {\n        lastFrom = _from;\n        lastTokenId = _tokenId;\n        lastData = _userData;\n        return bytes4(0xf0b9e5ba);\n    }\n\n    function() external {\n        emit CalledFallback();\n        // STUB!\n    }\n}\n",
  "sourcePath": "/home/rcn-d1/workspace/eth-gambling-api/contracts/utils/test/ERC721Base/TestERC721ReceiverLegacy.sol",
  "compiler": {
    "name": "solc",
    "version": "0.5.6+commit.b259423e.Emscripten.clang"
  },
  "schemaVersion": "3.0.11",
  "updatedAt": "2019-06-30T01:08:29.585Z",
  "devdoc": {
    "methods": {}
  },
  "userdoc": {
    "methods": {}
  }
}